:020000040000fa
:080000000002040000000000f2
:020000040000fa
:10000800be110000be110000be110000be110000ac
:10001800be110000be110000be110000be1100009c
:10002800be110000be110000be110000ee0e00005f
:10003800be110000be110000be110000da0f000062
:10004800be110000be110000be110000c80e000065
:10005800be110000be110000be110000be1100005c
:10006800be110000be110000be110000c60f000046
:10007800be110000be110000be110000be1100003c
:10008800be110000be110000be110000be1100002c
:10009800be110000be11000034100000be110000a7
:1000a800be110000be110000be110000be1100000c
:1000b800be110000be110000be110000be110000fc
:1000c800be110000be110000be110000be110000ec
:1000d800be110000be110000be110000be110000dc
:1000e800be110000be110000be110000be110000cc
:1000f800be110000be110000be110000be110000bc
:10010800be110000be110000be110000be110000ab
:10011800be110000be110000be110000be1100009b
:10012800be110000be110000be110000be1100008b
:10013800be110000be110000be110000be1100007b
:10014800be110000be110000be110000be1100006b
:10015800be110000be110000be110000be1100005b
:10016800be110000be110000be110000be1100004b
:10017800be110000be110000be110000be1100003b
:10018800be110000be110000be110000be1100002b
:10019800be110000be110000be110000be1100001b
:1001a800be110000be110000be110000be1100000b
:1001b800be110000be110000be110000be110000fb
:1001c800be110000be110000be110000be110000eb
:1001d800be110000be110000be110000be110000db
:1001e800be110000be110000be110000be110000cb
:0801f800be110000be11000061
:020000040000fa
:10020800be110000be110000be110000be110000aa
:10021800be110000be110000be110000be1100009a
:10022800be110000be110000be110000ee0e00005d
:10023800be110000be110000be110000da0f000060
:10024800be110000be110000be110000c80e000063
:10025800be110000be110000be110000be1100005a
:10026800be110000be110000be110000c60f000044
:10027800be110000be110000be110000be1100003a
:10028800be110000be110000be110000be1100002a
:10029800be110000be11000034100000be110000a5
:1002a800be110000be110000be110000be1100000a
:1002b800be110000be110000be110000be110000fa
:1002c800be110000be110000be110000be110000ea
:1002d800be110000be110000be110000be110000da
:1002e800be110000be110000be110000be110000ca
:1002f800be110000be110000be110000be110000ba
:10030800be110000be110000be110000be110000a9
:10031800be110000be110000be110000be11000099
:10032800be110000be110000be110000be11000089
:10033800be110000be110000be110000be11000079
:10034800be110000be110000be110000be11000069
:10035800be110000be110000be110000be11000059
:10036800be110000be110000be110000be11000049
:10037800be110000be110000be110000be11000039
:10038800be110000be110000be110000be11000029
:10039800be110000be110000be110000be11000019
:1003a800be110000be110000be110000be11000009
:1003b800be110000be110000be110000be110000f9
:1003c800be110000be110000be110000be110000e9
:1003d800be110000be110000be110000be110000d9
:1003e800be110000be110000be110000be110000c9
:0803f800be110000be1100005f
:020000040000fa
:08040000000e040000000000e2
:020000040000fa
:101c00006fab20000ebf20000e0188000000000016
:101c1000000020000000e00002003200000120006f
:101c20002002880014000700d60107000000e00031
:101c300003003a0040bc22000100200002003700ef
:101c40000000200001002000810f70000100320020
:101c500014000700000020000000e0000200320035
:101c600000000200000000006816020000000000f2
:101c70000040da000000fe004440a900403420008b
:101c80000000e0000300320000002000a0018800f6
:101c90004440a800000006008a1f78008b1f7800cf
:101ca0000000060091018800800478000000eb002d
:101cb0001a003700e284440032a0b4009905ba004b
:101cc000e284440032a0b4009906ba00e2844400e1
:101cd00032a0b4000006eb00476fde00fd07b20043
:101ce000636ce10003003a00ebff07000000eb002b
:101cf0000a003700606ce10004003a00005deb0070
:101d00008b05e900fdff3e00040037006168e1003b
:101d1000010032000086eb000b00070019c7ba0073
:101d20001905ba000e04e00003003a000a00e000c2
:101d3000e0ff3a0000000600fe07b2009e018800a6
:101d40008a047800f5ff3700395dba008b05e90099
:101d50000c003200295dba008b05e9000800320052
:101d60000c00e00003003a00e284440032a0b4001a
:101d7000f5ff370019ddba008b05e900faff3a00dc
:101d80008904e800e184440032a0b40000000600a9
:101d90003600f800809fbe00829fbe00849fbe0078
:101da000869fbe003400f80000002000a0018800db
:101db0000000fa008560a9004f0a07000080fa00c1
:101dc0003400f9004f03be004f02be004f01be00b9
:101dd0004f00be003600f90000400600809fbe00a4
:101de000829fbe003400f80000002000a00188009f
:101df0000200fa008460a90010c0b30045eab700f1
:101e00005bcabf000080fb00e10f50000e003200f3
:101e1000ed0f5000160032000000e0004e003a00c6
:101e20005ccabf000080fb00011880000001400078
:101e3000e0a52000000041000108780010c0b300b8
:101e40005beab700470037005ccabf000080fb00b8
:101e50000118800000014000e0a6200000004100c1
:101e600001087800d0c0b3005beab7003d0037003e
:101e70005ccabf008080fb000218800081814000a6
:101e8000e1a7200081804100820878000040e8003e
:101e90005ceab7005b6aef005ccabf00e74f500026
:101ea0002f0036005c6aef00502aef00522aef0044
:101eb000542aef000040eb00004f78001900370073
:101ec0001e80fb0080004000e0a520000080400054
:101ed000900078008052800000804000805288008e
:101ee0001e80fb0080004000e0a620000080400033
:101ef000900078009052800000804000905288004e
:101f00001e80fb0080004000e0a720000080400011
:101f100090007800a052800000804000a05288000d
:101f20001e4fe8001e407800e74f5000e4ff3600e7
:101f3000805280004300de00805288009052800072
:101f40004300de0090528800a05280004300de0073
:101f5000a0528800030037005b6aef0001003700e1
:101f6000000000005bcabf000080fb006f00600043
:101f7000401988002023a8000080fa003400f900ee
:101f80004f01be004f00be00004006003400f800c4
:101f9000881f780008002000a80188004f047800fe
:101fa0000000fa008660a9000080fa003400f90001
:101fb00000400600801f78003400f8000000200078
:101fc000a00188000000fa0084e0a9004ccabf000c
:101fd0000080fb00e10f50000d003200e10f5000c7
:101fe00003003c000000e000060032001a00370049
:101ff000e20f500009003200e30f50000a003200e7
:1020000015003700cd42a900cd62a90012003700ab
:10201000cd42a900cd62a8000f003700cd42a80034
:10202000cd62a9000c0037005acabf000004e000ce
:1020300004003200cd42a900cd62a8005a6aef0028
:1020400005003700cd42a800cd62a90010c0b30042
:102050005aeab700000000000080fa003400f900de
:102060004f00780000400600809fbe00829fbe00a7
:102070003400f80000002000a00188000200fa00ef
:1020800087c0a900b0118000004f7800aecabf0021
:102090000080fb00e30f50002c003200e30f5000e3
:1020a00007003c00e10f500014003200e10f500027
:1020b0001a003c000000e0000a003200a2003700d5
:1020c000e50f50008a003200e50f50002c0035006b
:1020d000e60f500091003200e70f500092003200ee
:1020e000990037001e407800e14f400099003a0007
:1020f00010c0b300aeeab7009b0037001e40780066
:10210000e14f400003003a0020c0b300aeeab70040
:1021100095003700ae6aef00930037001e4178004b
:10212000f1aa200082487800afcabf000004e00096
:1021300003003a0070c0b300aeeab7008a0037006f
:1021400030c0b300aeeab70087003700b06aef00d6
:102150001e407800f94f500006003a00afcabf0099
:10216000fb4f500003003a0040c0b300aeeab70096
:102170007d00370050c0b300aeeab7007a003700e8
:10218000b0cabf000080fb00cf80de00b20020009c
:1021900003002000820f5000838f580045003e004e
:1021a000006001000b0037000e00370043003700cd
:1021b00010003700120037001a0037001c003700eb
:1021c0003e00370023003700250037002d00370080
:1021d0002f0037001e41780021aa20008248780095
:1021e000370037001e41780031aa2000824878006d
:1021f000330037001e80fb00905588003000370008
:102200001e80fb004800dd008000780090558000b3
:10221000010070009055880090558000405588005e
:10222000270037001e80fb009055880024003700ef
:102230001e80fb004800dd00800078009055800083
:10224000010070009055880090558000505588001e
:102250001b0037001e80fb009055880018003700d7
:102260001e80fb004800dd00800078009055800053
:10227000010070009055880090558000205588001e
:102280000f0037001e80fb00905588000c003700bf
:102290001e80fb004800dd00800078009055800023
:1022a00001007000905588009055800030558800de
:1022b00003003700000000000100370000000000ac
:1022c000b0cabf000040e800b0eab70001ab200090
:1022d00091407800afcabf0080cf50001f003a0085
:1022e000ad6aef0060c0b300aeeab7001e00370071
:1022f000b0cabf000040e800b0eab70001ab200060
:1023000091407800afcabf0080cf500015003a005e
:1023100060c0b300aeeab70013003700ac6aef004c
:10232000ae6aef00100037001e4078000004e000a5
:1023300003003a0060c0b300aeeab7000a003700fd
:10234000ae6aef0008003700ae6aef000000000040
:102350000500370000000000030037000000000007
:1023600001003700000000000080fa003400f9008e
:102370004f01be004f00be00004006000040da00e2
:102380000000fe0000000500839f68000100e000df
:1023900002003d0060001000e08018000300e00033
:1023a00002003d0060011100e081190009000700f2
:1023b0004f00e00002003b0060001000e0801800c9
:1023c0000000060014002000120037006011b80061
:1023d0002b0037006022b800060220000000d00069
:1023e0008180d2000482d2008582d2000000a00049
:1023f0000202520083825a000300310002024200ae
:1024000083824a000000a1000603e900f3ff3a00be
:1024100000000600889fbe008a9fbe00841f7800cf
:102420006c0007004f00780011003300f0ff2f0010
:10243000838f6c0006003b00040565000a00a700be
:102440000800370009f0a60010002000080037003f
:10245000820f5400838f5c000300390010002000bd
:1024600001003e000000200009f0a7000000ea0083
:102470004f05be004f04be000000e0000000060053
:10248000889fbe008a9fbe00008270000402710017
:1024900004827100260032000004be000200be006b
:1024a0006011b8006b092000950220000182cf0066
:1024b0000a0039000541b1000082cf000700390051
:1024c0000541b1000982cf00040039000541b10087
:1024d0000882cf00010039000541b10005425200d9
:1024e000120032000a003b00828171006101640029
:1024f0008100d1000080d3008984d3000884d300f8
:102500008b05e8000442e800f7ff3a0007003700b7
:102510000804440089844c00000048008180480081
:102520008b05e9000442e900f9ff3a0003000700c7
:102530004f05be004f04be000000060081002000d1
:10254000618055000b003d000b00200061fe2f0054
:102550000100e1001d00340082817100610164000e
:102560008904d1000884d3000000e800faff3a0093
:102570007100200061006400030070000200600030
:102580000900320061044400e0844c000988a50081
:10259000050032008b05e8006808e10002003a00ff
:1025a0008904d1000884d300f20f20000258e10012
:1025b00005003d00c75ddd00f907b20089807500a8
:1025c00008007800000006000bf827008b00780058
:1025d000000005000004be00060007000003be0066
:1025e0000405be000200be0002000700844f750013
:1025f00000000600c70ade00f107b200f50fb200c6
:1026000008003200e1cf4200020032000170a00059
:1026100024000500810f700001003200040805004d
:1026200044000500810f700002003a00140005000c
:102630008502e9000000400081c04800fcff3b002b
:082640000170a0002400050058
:020000040000fa
:1026480000000000c1c0000081c10000400100007e
:1026580001c30000c00300008002000041c2000066
:1026680001c60000c00600008007000041c7000046
:1026780000050000c1c5000081c40000400400003e
:1026880001cc0000c00c0000800d000041cd00000e
:10269800000f0000c1cf000081ce0000400e0000f6
:1026a800000a0000c1ca000081cb0000400b0000f6
:1026b80001c90000c00900008008000041c80000ee
:1026c80001d80000c01800008019000041d900009e
:1026d800001b0000c1db000081da0000401a000086
:1026e800001e0000c1de000081df0000401f000066
:1026f80001dd0000c01d0000801c000041dc00005e
:1027080000140000c1d4000081d50000401500006d
:1027180001d70000c01700008016000041d6000055
:1027280001d20000c01200008013000041d3000055
:1027380000110000c1d1000081d00000401000004d
:1027480001f00000c03000008031000041f10000bd
:1027580000330000c1f3000081f2000040320000a5
:1027680000360000c1f6000081f700004037000085
:1027780001f50000c03500008034000041f400007d
:10278800003c0000c1fc000081fd0000403d00004d
:1027980001ff0000c03f0000803e000041fe000035
:1027a80001fa0000c03a0000803b000041fb000035
:1027b80000390000c1f9000081f80000403800002d
:1027c80000280000c1e8000081e90000402900005d
:1027d80001eb0000c02b0000802a000041ea000045
:1027e80001ee0000c02e0000802f000041ef000025
:1027f800002d0000c1ed000081ec0000402c00001d
:1028080001e40000c02400008025000041e500002c
:1028180000270000c1e7000081e600004026000014
:1028280000220000c1e2000081e300004023000014
:1028380001e10000c02100008020000041e000000c
:1028480001a00000c06000008061000041a10000fc
:1028580000630000c1a3000081a2000040620000e4
:1028680000660000c1a6000081a7000040670000c4
:1028780001a50000c06500008064000041a40000bc
:10288800006c0000c1ac000081ad0000406d00008c
:1028980001af0000c06f0000806e000041ae000074
:1028a80001aa0000c06a0000806b000041ab000074
:1028b80000690000c1a9000081a80000406800006c
:1028c80000780000c1b8000081b90000407900001c
:1028d80001bb0000c07b0000807a000041ba000004
:1028e80001be0000c07e0000807f000041bf0000e4
:1028f800007d0000c1bd000081bc0000407c0000dc
:1029080001b40000c07400008075000041b50000eb
:1029180000770000c1b7000081b6000040760000d3
:1029280000720000c1b2000081b3000040730000d3
:1029380001b10000c07100008070000041b00000cb
:1029480000500000c190000081910000405100003b
:1029580001930000c0530000805200004192000023
:1029680001960000c0560000805700004197000003
:1029780000550000c19500008194000040540000fb
:10298800019c0000c05c0000805d0000419d0000cb
:10299800005f0000c19f0000819e0000405e0000b3
:1029a800005a0000c19a0000819b0000405b0000b3
:1029b80001990000c05900008058000041980000ab
:1029c80001880000c04800008049000041890000db
:1029d800004b0000c18b0000818a0000404a0000c3
:1029e800004e0000c18e0000818f0000404f0000a3
:1029f800018d0000c04d0000804c0000418c00009b
:102a080000440000c18400008185000040450000aa
:102a180001870000c0470000804600004186000092
:102a280001820000c0420000804300004183000092
:102a380000410000c181000081800000404000008a
:102a48000000000000000000e20400000000000098
:102a58005d00000000000000e2040000000000002b
:102a68006800000000000000b00400000000000042
:102a780075000000000000007e0400000000000057
:102a880083000000000000004c040000000000006b
:102a980093000000000000001a040000000000007d
:102aa800a500000000000000e8030000000000008e
:102ab800b900000000000000b6030000000000009c
:102ac800cf000000000000008403000000000000a8
:102ad800e7000000000000005203000000000000b2
:102ae80001010000000000002003000000000000b9
:102af8001d01000000000000ee02000000000000c0
:102b08003d01000000000000bc02000000000000c1
:102b18005e010000000000008a02000000000000c2
:102b280083010000000000005802000000000000bf
:102b3800a9010000000000002602000000000000bb
:102b4800d201000000000000f401000000000000b5
:102b5800fc01000000000000c201000000000000ad
:102b680028020000000000009001000000000000a2
:102b780054020000000000005e0100000000000098
:102b880080020000000000002c010000000000008e
:102b9800ab02000000000000fa0000000000000086
:102ba800d502000000000000c8000000000000007e
:102bb800fd02000000000000960000000000000078
:102bc8002203000000000000640000000000000074
:102bd8004503000000000000320000000000000073
:102be8006303000000000000000000000000000077
:102bf8007f03000000000000ceff0000ffff000080
:102c080096030000000000009cff0000ffff00008a
:102c1800ab030000000000006aff0000ffff000097
:102c2800bc0300000000000038ff0000ffff0000a8
:102c3800cb0300000000000006ff0000ffff0000bb
:102c4800d603000000000000d4fe0000ffff0000d3
:102c5800e003000000000000a2fe0000ffff0000eb
:102c6800e80300000000000070fe0000ffff000005
:102c7800ff0300000000000070fe0000ffff0000de
:102c8800ffff0000053000003e6e00000008000055
:102c980000170000ffff00000419000000000000fa
:102ca80000000000e3ff0000ff0100003304000003
:102cb800c8ff0000ff010000206e000071ff000047
:082cc800ff00000021df000005
:020000040000fa
:102cd0001400fa00881f78000000eb00000f780055
:102ce0000000eb00100798000040eb004047980000
:102cf0000040eb00504798000040eb006047980010
:102d00000040eb00704798000040eb00004f980037
:102d10000040eb00104f98000000eb0050079800b7
:102d20000040eb00404f98000040eb00504f9800ef
:102d30000040eb00604f98000a0307000000eb0022
:102d40003e0a070061006000004078000004e000d7
:102d5000020032000040eb000100370010c0b30059
:102d600046eab7000000eb00340a0700620060008a
:102d700000f0a7000000ea000000e9004f00de00bc
:102d80000040780047eab700486aef000000eb0017
:102d90002a0a07006400600000f0a7000000ea00b3
:102da0000000ea004f00de00004078004deab70066
:102db000cde2a800611680000020200000806000a5
:102dc0000000e00004003a0020168000640060006b
:102dd0000000e0000200320020002000000f780018
:102de00000c0eb0092e1b700cd22a8008d020700e1
:102df00091528000f0032000808f500007003e00b9
:102e000010c0b30059eab700300020000027880046
:102e10003002200000168800820207001e007800a1
:102e2000e20f50000a003200cd22a90046cabf00be
:102e30000004e0000600320010002000000f7800bf
:102e40000300370000000000010037000000000010
:102e50002d03070045cabf000004e000f9ff32005f
:102e6000456aef004dcabf000004e0001d003200bb
:102e70005116800000002400008060000000e00087
:102e800018003a001e0078000000e00015003a002b
:102e90000000eb00000f98000000eb00000f98000e
:102ea0000c00370030c0b3004ceab7000024240007
:102eb000f1002000260a07004c6aef0000242400dd
:102ec000f1002000220a07000e0890000000e80030
:102ed000000f98000e089000e20f5000f1ff340040
:102ee00015003700501680006800600000f0a70051
:102ef0000000ea000000e9004f00de00804078009a
:102f00005e4090000080fb000000e9004f00de0002
:102f10000040780000c060004047980050168000d4
:102f20006800600000f0a7000000ea000000e9006f
:102f30004f00de00504798001e009000e20f500046
:102f400039003200e20f500005003e000000e000b2
:102f50000a003200e10f50001c003200ab003700c5
:102f6000e40f500075003200e40f50003c003900bf
:102f7000e50f50007b003200a4003700511680009e
:102f800000002400008060000000e0000800320023
:102f9000200020001007980046cabf000004e0008f
:102fa0008900320010002000000f780097003700e1
:102fb0001e0078000000e0008500320006090700ce
:102fc0001000200010079800900037007e4090000d
:102fd0000004e0000300320020c0b3004ceab70058
:102fe000010037004c6aef005116800000002400f9
:102ff000008060000000e00004003200fc080700d0
:103000002000200010079800800037001e00780084
:103010000000e00070003a00f50807000000eb0037
:1030200010079800790037000040eb00504f9800df
:103030000040eb00604f980010c0b3004feab700ab
:103040000040eb006047980030c0b3004ceab70086
:10305000ed08070030002000100798006b003700d3
:103060005116800000002400008060000000e00095
:1030700010003a000000eb0010079800e808070075
:103080004f6aef008000eb0040c1b3007e010700f3
:103090004c6aef0047cabf000004e0005000320055
:1030a00010c0b300d704070040c1b30048eab7001e
:1030b00056003700105280008000eb00c3fc070070
:1030c00018c0b3000200240023492400bdfc0700ff
:1030d0000000e000010035000044eb000804e000bf
:1030e000060032000e4890000004e00003003200a9
:1030f00010c0b3004ceab7000200370030c0b30084
:103100004ceab7006e4090000004e000020032007c
:1031100040002000100798001e0078000000e0002a
:1031200031003a0046cabf000004e000300032001f
:1031300010002000000f7800340037008000eb0002
:1031400040c1b3005001070010c0b3004ceab70003
:103150004f6aef00b20807005000200010079800e7
:103160002a00370051168000000024000080600013
:103170000000e0000b003a000000eb001007980090
:103180004c6aef0047cabf000004e0001a0032009a
:1031900010c0b3009b04070040c1b30048eab70069
:1031a0001a0037001e0078000000e00014003a000a
:1031b00046cabf000004e0001300320010002000e7
:1031c000000f780011003700000000000f003700ea
:1031d000000000000d003700000000000b00370069
:1031e0000000000009003700000000000700370061
:1031f0000000000005003700000000000300370059
:103200000000000001003700000000001e007800f0
:10321000e10f50002b003200e10f50000500390093
:10322000e20f500040003200e30f50005d0032001a
:103230006f0037001e0090000000e0001b003a0005
:1032400050168000680060000000e00017003200a7
:103250004c6aef00cd42a900cd62a9000040eb000e
:1032600063010700cde2a9002342a9003342a9006f
:1032700021e3a90062e0a8006380a8008660a9009d
:103280009660a8000040fe009660a9008660a90034
:1032900021e3a800501680002057980062e0a900a2
:1032a0006380a9002342a800cde2a8004e40900010
:1032b0000004e0004b00320010002000000f7800f6
:1032c0004b003700cd02a80000c4290001002000f7
:1032d0001f090700cd82a800c462a80000d4200006
:1032e000310020001a090700c4e2a800cda2a800fe
:1032f000cc82a800cd22a800c442a80000a82100ca
:103300006100200012090700c482a80030c0b30089
:1033100058eab7004a6aef0020002000000f78004a
:103320004e6aef003200370044cabf000004e000dc
:103330000300320030002000000f7800446aef00e4
:1033400050168000680060000000e00012003a00a3
:103350005e0090000000e80050079800de0090003a
:1033600020032000808f500002003a000040eb0054
:1033700024040700de00900000192000808f500018
:103380001a00360030002000000f78000000eb002b
:1033900050079800160037000000eb005007980017
:1033a00013003700c482a900cd22a900c442a9009d
:1033b000cd82a900c462a900cc82a900c4e2a90000
:1033c000cda2a90000502300c1002000e0080700a2
:1033d000cd02a900486aef000000eb00000f780062
:1033e000030037000000000001003700000000006b
:1033f0001e4890000004e000970032000040eb00ff
:10340000104f98000e4890000080fb000000e9007b
:103410004f00de00004f980059cabf000004e000d2
:1034200002003a003b0107000100370000e72200dc
:10343000005288000e010700105288001e0078001c
:10344000e20f50001f003a0090528000c0070700b2
:10345000b052880058cabf000080fb000000ea009c
:103460004f00de0080407800b052800098000700d6
:1034700058cabf000004e0000300320058cabf0071
:103480000040e90058eab700b15280002035200022
:10349000808f5000090034007e4890000040e80012
:1034a000704f98007e489000ea4f500005003400ad
:1034b00010c0b30044eab700020037000040eb0040
:1034c000704f98001e007800e20f500027003a006d
:1034d0005116800000002400008060000000e00021
:1034e00022003a000152800090032200808f500099
:1034f0000f003e006e4890000040e800604f9800ca
:103500006e489000e54f50001d00340010c0b3001d
:1035100044eab7000040eb0070479800cd42a90094
:10352000cd62a9000040eb00604f98001500370005
:103530000040eb00604f9800015280007064220050
:10354000808f500006003e007e4090000080fb000f
:103550000000e9004f00de007047980009003700c6
:103560000040eb0070479800060037000040eb0079
:10357000704798000040eb00604f98000100370052
:10358000000000004fcabf000004e000100032003d
:103590001152800030062000808f500009003e004c
:1035a0005e4890000040e800504f98005e48900050
:1035b000ea4f50000800340010c0b3006047980084
:1035c000050037000040eb00504f98000200370024
:1035d0000040eb00504f98001e009000e30f500099
:1035e00008003a0010c0b30081000700410d23001d
:1035f00050c1b300240007004151200040c1b30076
:10360000210007001e009000e30f5000030032006d
:103610001e009000e10f500001003a006207070011
:1036200048cabf00e14f500005003a0040c1b30056
:1036300048eab70010c0b300720307000600370065
:1036400048cabf00e14f50000300360048cabf001f
:103650000040e90048eab7004e4890000040e8000a
:10366000404f9800ce48900010c3b30080cf500068
:10367000f6fd360010c0b300104f98000040eb007c
:10368000404f9800f2fd37000400fa00004f780028
:10369000110798008b04070020c1b300270507001d
:1036a0001e407800250507001e00900000407800ad
:1036b000220507001e0090004800de000040780050
:1036c0001e050700d80407000080fa00000006006d
:1036d0000800fa0020079800614798002e0090002b
:1036e000cf80de00522120000289b900020178005b
:1036f0006003b900860178000301410053212000d6
:103700000300b800010141008200780032b22800b5
:10371000c3ff2f0000004100818049004809dd00ff
:103720004802de0004027100c88ade00048fbe0079
:103730004acabf000004e0000f003200ae00900053
:10374000d02e2000808f500005003c0049cabf00e9
:103750000080fb008000eb00008fbe0019003700e6
:10376000f00f200001002000008fbe0010c0b30049
:103770004beab700130037001e00be00e00f5000f8
:10378000e08f580002003d006000b800008fbe00ce
:10379000e2062000030020001e0f41005e97490052
:1037a000f00f2000010020001e01be00800f51001c
:1037b000818f590003003400f00f20000100200029
:1037c000008fbe006e4090000004e00004003a004c
:1037d0001e0078000040780000c0ea0001003700b9
:1037e0000040eb0092e1b7000080fa000000060004
:1037f0000200fa00004f78001e4078000004e0004c
:10380000020032004092270001003700509227004a
:103810008000780020c1b3009bff07000080fa0001
:10382000000006000200fa000040eb00004f7800a4
:103830000a00370010c0b3004ceab700007c220039
:1038400091002000c20707004c6aef00007c2200b4
:1038500091002000be0707001e4fe8001e407800c0
:10386000e14f5000f3ff36000080fa000000060030
:103870000000fa0059cabf000004e0001200320044
:10388000805280008000eb00027420000289b900a1
:10389000020178006402b90084017800030141004c
:1038a000037420000300b800010141008200780089
:1038b0004209dd004e00de0000007100ce08de008f
:1038c0000000780011003700805280008000eb007b
:1038d00062aa2b000289b900020178006002b900d7
:1038e000840178000301410063aa2b000300b800a3
:1038f00001014100820078004209dd004e00de0037
:1039000000007100ce08de00000078000080fa00a0
:10391000000006000000fa00a05280008000eb00ca
:1039200002b123000289b900020178006302b900e4
:10393000840178000301410003b123000300b800b3
:1039400001014100820078004209dd004e00de00e6
:1039500000007100ce08de00000078000080fa0050
:10396000000006000000fa00700220000016880027
:103970007000200000278800f00e24004016880008
:10398000e224ef0000012000401188002222ef0015
:103990002022ef002062a80021e2a8008560a90093
:1039a0009560a8002342a800001a2000c0118800da
:1039b0003222ef003022ef003062a80031e2a8008e
:1039c00087c0a90097c0a8003342a8000421ef00d7
:1039d000f0c32900100888008460a90005e1a80050
:1039e00021058000f0ff28000080600000e0a000ba
:1039f000200588009460a800900f200040088800ef
:103a00000a21ef0051088000c0ff2f0000806000f5
:103a10000010a0005008880084e0a9000a41a80016
:103a200031058000f0ff28000080600000e0a00069
:103a30003005880094e0a800f00f2000a00888005e
:103a40001621ef00b1088000c0ff2f000080600049
:103a5000b00888001641a8003c01a8009261ef0060
:103a6000810c800000ff2f0000806000c000b300c8
:103a7000800c8800810c8000f0fc2f00008060002a
:103a8000800c88009a21ef009a01a800000e220005
:103a9000001988002223ef00104020002019880020
:103aa0002823ef007000200080198800de24ef003a
:103ab00085a0a90021e3a8000080fa00000006000c
:103ac0000000fa002822ef002222ef002022ef005f
:103ad0009560a9003822ef003222ef003022ef007b
:103ae00097c0a8000421ef009460a9000a21ef000c
:103af00094e0a9001621ef0021e3a9009a21ef002c
:103b00000080fa00000006001a00fa00889fbe003c
:103b100060002000000f78004b0207000004e00066
:103b20003502320066004700520207001007980075
:103b30001e009000104078000080fb00e60f50004f
:103b4000a7013200e60f50000e003c00e30f5000ca
:103b50001d003200e30f500005003c000000e000b3
:103b60002a003200e10f500090003200220237009c
:103b7000e40f500092003200e50f50007b0132004c
:103b80001d023700e90f5000d4013200e90f500048
:103b900005003c00e70f5000ad013200e80f500077
:103ba000bf01320014023700eb0f50000602320052
:103bb000eb0f5000e5013500f1072000810f5000a8
:103bc0000a0032000c02370030c0b30017020700b1
:103bd00000c4290001002000dd060700b8ff07002f
:103be0000002040000000000030237000040eb0068
:103bf000004f980068004700120020008000780005
:103c0000f0c7b30073020700fb0137000040eb0070
:103c1000404798004e4090000080fb0021aa200001
:103c20009140780000004700114898004e409000f5
:103c30000040e800404798004e4090000080fb00a4
:103c400031aa2000914078000000470011489800f8
:103c50004e4090000040e800404798004e409000e1
:103c60000080fb0021558000c808de0081407800fc
:103c700000004700114898004e4090000040e800c6
:103c8000404798004e4090000080fb002155800086
:103c90008140780000004700114898004e40900095
:103ca0000040e800404798004e4090000080fb0034
:103cb00031558000c808de008140780000004700d0
:103cc000114898004e4090000040e800404798009e
:103cd0004e4090000080fb0031558000814078000c
:103ce00000004700114898004e4090000040e80056
:103cf000404798004e4090000080fb0041558000f6
:103d0000c808de0081407800000047001148980094
:103d10004e4090000040e800404798004e40900020
:103d20000080fb0041558000814078000000470082
:103d3000114898004e4090000040e800404798002d
:103d40004e4090000080fb0051558000c808de0006
:103d50008140780000004700114898004e409000d4
:103d60000040e800404798004e4090000080fb0073
:103d700051558000814078000000470011489800ac
:103d80004e4090000040e800404798004e409000b0
:103d90008080fb0069004700010178008000780006
:103da0000040eb000b0207009301370010c0b30086
:103db0009e01070010c0b30044eab7008e0137002f
:103dc0000040eb00404798004e4090000080fb0010
:103dd00021aa200091407800000047001148980077
:103de0004e4090000040e800404798004e40900050
:103df0000080fb0031aa20009140780000004700bd
:103e0000114898004e4090000040e800404798005c
:103e10004e4090000080fb0021558000c808de0065
:103e20008140780000004700114898004e40900003
:103e30000040e800404798004e4090000080fb00a2
:103e4000215580008140780000004700114898000b
:103e50004e4090000040e800404798004e409000df
:103e60000080fb0031558000c808de0081407800ea
:103e700000004700114898004e4090000040e800c4
:103e8000404798004e4090000080fb003155800074
:103e90008140780000004700114898004e40900093
:103ea0000040e800404798004e4090000080fb0032
:103eb00041558000c808de008140780000004700be
:103ec000114898004e4090000040e800404798009c
:103ed0004e4090000080fb004155800081407800fa
:103ee00000004700114898004e4090000040e80054
:103ef000404798004e4090000080fb0051558000e4
:103f0000c808de0081407800000047001148980092
:103f10004e4090000040e800404798004e4090001e
:103f20000080fb0051558000814078000000470070
:103f3000114898004e4090000040e800404798002b
:103f40004e4090000080fb0001528000c808de0057
:103f50008140780000004700114898004e409000d2
:103f60000040e800404798004e4090000080fb0071
:103f700001528000814078000000470011489800fd
:103f80004e4090000040e800404798004e409000ae
:103f90000080fb0011528000c808de0081407800dc
:103fa00000004700114898004e4090000040e80093
:103fb000404798004e4090000080fb001152800066
:103fc0008140780000004700114898004e40900062
:103fd0000040e800404798004e4090000080fb0001
:103fe000b1528000c888de008140780000004700a0
:103ff000114898004e4090000040e800404798006b
:104000004e4090000080fb00b1528000814078005b
:1040100000004700114898004e4090000040e80022
:10402000404798004e4090000084fb004ecabf00fd
:104030000004e0000200320001c4b30001003700b8
:104040008040eb004dcabf000004e00002003200d7
:1040500000c2b300010037000040eb0080c07000d8
:104060004bcabf000004e0000200320000c1b300f0
:10407000010037000040eb0080c0700046cabf005e
:104080000004e0000200320080c0b30001003700ed
:104090000040eb0080c070004fcabf000004e00089
:1040a0000200320040c0b300010037000040eb00c6
:1040b00080c07000521680000000240000006100e3
:1040c0000000e0000200320020c0b3000100370011
:1040d0000040eb0080c47000d70407000004e0003b
:1040e000060032000152800000fa2000808f50004c
:1040f0000200360010002000010037000000eb0035
:104100000040780000c0740080407800080047003c
:10411000114898004e4090000040e8004047980049
:104120004e4090000080fb00211920009140780053
:1041300081c0ea0000004700114898004e409000fe
:104140000040e800404798004e4090008080fb000f
:1041500069004700010178008000780040c0b3008a
:104160001c0107004b6aef00a30037000040eb0082
:10417000404798004e4090000080fb009e00780071
:10418000c808de0081407800000047001148980010
:104190004e4090000040e800404798004e4090009c
:1041a0000080fb009e0078008140780000004700fe
:1041b000114898004e4090000040e80040479800a9
:1041c0004e4090008080fb006900470001017800ac
:1041d0008000780050c0b300fe0007008600370062
:1041e0001e0090000000e800104078006140600070
:1041f00046eab7001e0090000000e800104078007a
:104200006240600047eab70047cabf000004e00010
:10421000020032000000eb00010037002000200007
:1042200061a42000914078008180fb008100e900ba
:10423000cf08de0000807000800078000000eb00f6
:104240000c05070060c0b300780007006a00370063
:1042500047cabf000004e0000200320020c0b300e3
:10426000010037000040eb0061a42000914078007d
:104270008180fb008100ea00cf08de0081407800e9
:1042800001407000104f98006900470012002000a4
:104290008000780070c0b300ce00070056003700e1
:1042a0001e0090000000e800104078000080fb0035
:1042b0000000ea004f00de00004078004aeab70044
:1042c0001e0090000080e8001040780049eab70026
:1042d00080c0b30055000700470037000040eb00e6
:1042e000404798004e4090000080fb00a1a42000b1
:1042f0009140780000004700114898004e4090001f
:104300000040e800404798004e4090000080fb00cd
:1043100091a42000914078000000470011489800c7
:104320004e4090000040e800404798004e4090000a
:104330008080fb0069004700010178008000780060
:1043400090c0b300a30007002b0037001e009000b0
:104350000000e800104078004deab7000000eb00d4
:10436000b60407000040780098eab7004dcabf00c5
:104370000004e0000900320098cabf000024a00039
:1043800098eab70098cabf000080fb008000780060
:104390000000eb00b70407000800370098cabf0010
:1043a0000024a10098eab70098cabf000080fb0073
:1043b000800078000000eb00ae040700a0c0b3004e
:1043c0001a0007000c0037000000eb009b040700f8
:1043d000004078006440600098eab70098cabf00c7
:1043e0000080fb001200200080007800b0c0b30005
:1043f00078000700000000004f04be000080fa00b3
:10440000000006000200fa00004f780012002000b1
:104410008e00780020c0b3006e00070010c0b3000b
:104420004eeab7000080fa00000006000200fa0021
:10443000004f7800110020000e00780032000700c5
:104440000080fa00000006000000fa0061a92000c8
:104450009140780097cabf0080cf50000200320020
:1044600010c0b300010037000040eb000080fa00ec
:10447000000006000400fa001007980061a920005f
:104480009140780097cabf0080cf500018003200da
:1044900097cabf000080fb00e1a820000000400098
:1044a00000804000900078001e0090000108780015
:1044b0000380200072a92000124178008280fb0056
:1044c000000920000088b90000007800008f41003a
:1044d0000240e80097eab70097cabf00e34f5000d8
:1044e00001003600976aef001e00780004003700d4
:1044f0001e0090008000eb00010878000000eb0037
:104500000080fa00000006000800fa00200798006a
:10451000310798000e80e800ff030700a0c5b30034
:10452000690007003e0090004800de00004078006f
:10453000650007003e0090004800de0080407800e3
:104540000e80e800fb0307003e009000004078006a
:104550005d0007003e009000804078000e80e8007b
:10456000f40307000000eb00000f78000c00370098
:104570001e007800ae0090000080400010407800df
:10458000510007001e007800ae009000008040003f
:10459000904078000e80e800e60307001e0fe80058
:1045a0009e0078003e009000808f5000f0ff3900a0
:1045b0001e0090004800de00004078004200070026
:1045c0001e009000004078003f0007000080fa00c5
:1045d000000006000a00fa004047980031079800e2
:1045e000420798000e80e800cb030700a0c5b30087
:1045f000350007004e0090000000e8004800de0093
:1046000000407800300007004e0090000000e800f5
:104610004800de00804078000e80e800c5030700f7
:104620004e009000004078000040e800260007009f
:104630004e009000004078008040e8000e80e800c6
:10464000bc0307004e4090001f0007000e80e800ea
:10465000ce409000b70307000000eb00000f780089
:104660000c0037001e007800be0090000080400063
:1046700010407800140007001e007800be00900073
:1046800000804000904078000e80e800a9030700f9
:104690001e0fe8009e0078004e009000808f5000b2
:1046a000f0ff39001e0090004800de000040780056
:1046b000050007001e00900000407800020007007f
:1046c0000080fa00000006000200fa00004f7800a7
:1046d0000000000011118000001020000080600028
:1046e0000000e000fbff32001e80fb00201188006c
:1046f0000080fa00000006000200fa00301180007d
:10470000004f7800d0548000e20f500020003200ab
:10471000e20f500005003e000000e0000a003200f9
:10472000e10f50001100320064003700e40f500028
:104730003e003200e40f500026003900e50f500023
:10474000440032005d003700a0c5b3009e407800f1
:1047500080cf500056003a0010002000d05488004e
:10476000c0a920006c030700540037001e80fb0026
:104770004800dd00f05488009e407800c0a9200069
:104780006c03070020002000d05488004b00370045
:104790009e80fb00f054800001007000f0548800ff
:1047a0009e407800c0a9200062030700f1548000f9
:1047b00000092000808f500004003e00a02aef0076
:1047c00030002000d05488003c0037009a2aef00c7
:1047d0003a0037009e407800c0a92000550307002a
:1047e00096cabf008080fb000255800000092000af
:1047f0000088b9000000780082004000008020009e
:10480000008040001e4878000200e8000055880043
:1048100001558000f0548000808f50002600390040
:1048200040002000d0548800240037009e80fb0008
:10483000e05480004800de00808f500003003a0002
:1048400050002000d05488001c0037009a2aef0046
:104850001a0037009e80fb00e2548000f00f200019
:1048600000006100808f50000e003a0096cabf0021
:104870000080fb00f1548000e2a82000000040000e
:10488000000041000108780096cabf000040e8001f
:1048900096eab70096cabf00e34f50000100360009
:1048a000966aef009a2aef0000000000030037002c
:1048b0000000000001003700000000000080fa0046
:1048c000000006000000fa0059cabf000004e00022
:1048d00008003a0040002000010020009c0307006f
:1048e000c8a2a80040002000010020009803070093
:1048f000070037004000200001002000940307005b
:10490000c8c2a8004000200001002000900307005a
:1049100059cabf000004e0000d003a00400020002a
:10492000010020008a030700c8c2a80051168000b9
:1049300000042000008060000000e000fbff320067
:104940004000200001002000810307000c00370018
:1049500040002000010020007d030700c8a2a8003d
:104960005116800000022000008060000000e0007e
:10497000fbff32004000200001002000740307000c
:1049800059cabf000004e00009003a0040002000be
:10499000010020006e030700c8a2a900caa2a90056
:1049a00040002000010020006903070008003700d4
:1049b000400020000100200065030700c8c2a900d4
:1049c000cac2a900400020000100200060030700c7
:1049d00059cabf000004e00009003a00400020006e
:1049e000010020005a030700c8c2a900cac2a900da
:1049f0004000200001002000550307000800370098
:104a0000400020000100200051030700c8a2a900b7
:104a1000caa2a90040002000010020004c030700aa
:104a20000080fa00000006000000fa0059cabf002a
:104a30000004e00009003a004000200001002000ce
:104a400043030700c8a2a900caa2a9004000200091
:104a5000010020003e03070008003700400020004e
:104a6000010020003a030700c8c2a900cac2a90079
:104a700040002000010020003503070059cabf0094
:104a80000004e0000d003a0040002000010020007a
:104a90002f030700c8c2a8005116800000042000a0
:104aa000008060000000e000fbff320040002000ba
:104ab00001002000260307000c0037004000200002
:104ac0000100200022030700c8a2a80051168000a0
:104ad00000022000008060000000e000fbff3200c8
:104ae00040002000010020001903070059cabf0040
:104af0000004e00008003a0040002000010020000f
:104b000013030700c8a2a8004000200001002000f5
:104b10000f030700070037004000200001002000bd
:104b20000b030700c8c2a8004000200001002000bd
:104b3000070307000080fa00000006000400fa00e6
:104b40002047980059cabf000004e00009003a005d
:104b50004000200001002000fd020700c8c2a9009b
:104b6000cac2a9004000200001002000f80207008e
:104b7000080037004000200001002000f402070078
:104b8000c8a2a900caa2a90040002000010020007c
:104b9000ef0207000040eb00004f78005e00370096
:104ba0002e4090000004e00013003d0059cabf00f1
:104bb0000004e00008003a0040002000010020004e
:104bc000e3020700c8a2a800400020000100200066
:104bd000df0207001c003700400020000100200019
:104be000db020700c8c2a80040002000010020002e
:104bf000d70207001400370059cabf000004e000c4
:104c000009003a004000200001002000d002070007
:104c1000c8a2a900caa2a9004000200001002000eb
:104c2000cb020700080037004000200001002000f0
:104c3000c7020700c8c2a900cac2a90040002000dc
:104c400001002000c202070059cabf000004e000b2
:104c50000d003a004000200001002000bc020700c7
:104c6000c8c2a80051168000000420000080600027
:104c70000000e000fbff32004000200001002000a7
:104c8000b30207000c0037004000200001002000a4
:104c9000af020700c8a2a800511680000002200041
:104ca000008060000000e000fbff320040002000b8
:104cb00001002000a60207002e40900000404000a6
:104cc0002047980059cabf000004e00009003a00dc
:104cd00040002000010020009d020700c8c2a9007a
:104ce000cac2a9004000200001002000980207006d
:104cf0000800370040002000010020009402070057
:104d0000c8a2a900caa2a9004000200001002000fa
:104d10008f0207001e4fe8001e407800e74f50004a
:104d20009fff340059cabf000004e0000d003a00a4
:104d3000400020000100200085020700c8c2a80032
:104d40005116800000042000008060000000e00098
:104d5000fbff320040002000010020007c02070021
:104d60000c003700400020000100200078020700fe
:104d7000c8a2a80051168000000220000080600038
:104d80000000e000fbff3200400020000100200096
:104d90006f02070059cabf000004e00008003a0093
:104da000400020000100200069020700c8a2a800fe
:104db00040002000010020006502070007003700c6
:104dc000400020000100200061020700c8c2a800c6
:104dd00040002000010020005d0207005016800006
:104de0004500de0061406000004f780059cabf00f6
:104df0000004e00009003a0040002000010020000b
:104e000053020700c8c2a900cac2a900400020007e
:104e1000010020004e02070008003700400020007b
:104e2000010020004a020700c8a2a900caa2a900e6
:104e300040002000010020004502070059cabf00c1
:104e40000004e00009003a004000200001002000ba
:104e50003f020700c8a2a900caa2a9004000200082
:104e6000010020003a02070008003700400020003f
:104e70000100200036020700c8c2a900cac2a9006a
:104e80004000200001002000310207001e40780091
:104e90000080fa00000006000400fa002047980095
:104ea00059cabf000004e00008003a00400020009a
:104eb0000100200026020700c8a2a8004000200030
:104ec00001002000220207000700370040002000f8
:104ed000010020001e020700c8c2a80040002000f8
:104ee000010020001a0207000040eb00004f78008c
:104ef0003c0037001e4090000040400010479800e2
:104f000059cabf000004e0000d003a004000200034
:104f1000010020000e020700c8c2a8005116800040
:104f200000042000008060000000e000fbff320071
:104f30004000200001002000050207000c0037009f
:104f4000400020000100200001020700c8a2a800c4
:104f50005116800000022000008060000000e00088
:104f6000fbff32004000200001002000f801070094
:104f70005116800000022000008060000000e00068
:104f8000030032001e4090000004a000104798006b
:104f900059cabf000004e00009003a0040002000a8
:104fa00001002000ea010700c8c2a900cac2a90086
:104fb0004000200001002000e50107000800370044
:104fc0004000200001002000e1010700c8a2a90064
:104fd000caa2a9004000200001002000dc01070057
:104fe0001e4fe8001e407800e74f5000c1ff34001c
:104ff0002e409000e14f500015003a0059cabf0002
:105000000004e00009003a004000200001002000f8
:10501000cf010700c8a2a900caa2a9004000200031
:1050200001002000ca0107001b00370040002000db
:1050300001002000c6010700c8c2a900cac2a90019
:105040004000200001002000c101070012003700cd
:1050500059cabf000004e00008003a0040002000e8
:1050600001002000ba010700c8a2a80040002000eb
:1050700001002000b60107000700370040002000b3
:1050800001002000b2010700c8c2a80040002000b3
:1050900001002000ae01070059cabf000004e00073
:1050a0000d003a004000200001002000a801070088
:1050b000c8c2a800511680000004200000806000d3
:1050c0000000e000fbff3200400020000100200053
:1050d0009f0107000c003700400020000100200065
:1050e0009b010700c8a2a800511680000002200002
:1050f000008060000000e000fbff32004000200064
:10510000010020009201070059cabf000004e0001e
:1051100009003a0040002000010020008c01070037
:10512000c8c2a900cac2a900400020000100200096
:105130008701070008003700400020000100200020
:1051400083010700c8a2a900caa2a900400020004c
:10515000010020007e01070059cabf000004e000e2
:1051600009003a00400020000100200078010700fb
:10517000c8a2a900caa2a900400020000100200086
:1051800073010700080037004000200001002000e4
:105190006f010700c8c2a900cac2a90040002000d0
:1051a000010020006a0107001e4090000080fa0004
:1051b000000006001200fa00889fbe005007980009
:1051c0006207980073079800010f98000000eb0039
:1051d000000f7800560037001e0078004300dd0005
:1051e000de009000008040001001be006e009000c4
:1051f000fe009000800f5100818f59004b003c0051
:105200001e0078000000e8004300dd00de00900092
:10521000008040001001be006e009000fe00900073
:10522000800f5100818f5900400035001e0078002a
:105230004300dd00de009000008040001000be0052
:105240006e019000fe019000000051008180590025
:1052500010079800210798001e0078000000e80061
:105260004300dd00de009000008040001001be0021
:105270001e0078004300dd00de009000008040004a
:105280001000be00000051008180590030079800d6
:10529000410798001e0078004300dd00de0090000a
:1052a0000080400020049000b00490001e007800b0
:1052b0000000e8004300dd00de00900000804000b8
:1052c00020019000b00190001e0078004300dd0036
:1052d000de00900000804000b000900020009000b0
:1052e00000005100818059001e0190000191b90019
:1052f00002017800ae019000009ab90084017800a4
:10530000030141009e0190000018b8000101410016
:10531000820078003e019000ce0190001af4070050
:105320000800400089804800060037001e0fe80092
:105330000e0890000000e9009e0f5000a6ff3c0000
:105340006000b8004f04be000080fa0000000600b4
:105350000200fa00000f78001e0078006101b8001a
:10536000310220004052290092ff0700000078001f
:105370000080fa00000006000200fa00004f7800ea
:1053800000000000911180000010200000806000eb
:105390000000e000fbff32001e80fb00a01188002f
:1053a0000080fa00000006000000fa00adcabf004d
:1053b000e24f500003003e00adcabf000040e800cd
:1053c000adeab70091c0b300e064290023000700f4
:1053d0000080fa00000006000000fa00a1c0b3003f
:1053e000406429001d0007000080fa00000006004c
:1053f0000000fa0061c0b3007065290017000700c3
:105400000080fa00000006000000fa0061c0b3004e
:10541000d0652900110007000080fa000000060096
:105420000000fa0051c0b300306629000b000700ed
:105430000080fa00000006000000fa00d1aa200057
:105440009140780010c0b300e2cf50000100360058
:105450000040eb000080fa00000006000600fa00a1
:105460001007980041479800b46aef000600370023
:1054700000c4290001002000b5000700b4cabf0025
:105480000040e800b4eab700accabf000004e00086
:105490000500320041ab20009140780070c2b3009b
:1054a00080cf5000f2ff36003342a80000e2240013
:1054b00001002000a60007000040eb00004f78002c
:1054c000060037001e80fb009e0090000080400018
:1054d00010407800a8ff07001e4fe8004e409000e3
:1054e0009e40780080cf5000f6ff39000000000099
:1054f0009111800000102000008060000000e0009a
:10550000fbff32003342a90010c0b300aceab70081
:105510000080fa00000006000200fa00000f780088
:105520001e0078008080eb00010878000080fa00ff
:10553000000006000600fa00100798004147980096
:105540001e00900010007800804078004e409000cf
:1055500000cf68001e00900010007800c800de0038
:105560001e009000010878001e0090009000780056
:105570001e80fb0000014000403229000000410075
:1055800010007800808068001e00900001087800fc
:105590001e009000100078000080fa000000060055
:1055a0000800fa0020079800310798000080eb00ff
:1055b000000f7800130037002e0090009040780014
:1055c0001e0078000040780000c068002047980066
:1055d0002e0090000000e800200798001e007800d0
:1055e0004800de00000f78002e4090000080fb0095
:1055f0008000400040322900008040001000780008
:105600001e0f68003e00900000f0a7000000ea00b6
:105610000000ea004f00de0000407800be0090006d
:105620008100e900310798000004e000e2ff3a0041
:105630001e0078000080fa00000006000600fa0054
:1056400020079800f00720000040780032e0b70003
:1056500000e02f00000f78002e0090001e00400098
:105660001000ba00100798001e0090000080fa0099
:10567000000006000600fa001007980021079800b5
:1056800080052400003b8800f007200000407800df
:1056900032e0b70001e02f001e009000008f4000b4
:1056a0001e0078008000eb000108bb000500fc0034
:1056b00050052000303b8800a00a2000303b8800c5
:1056c00061e7a800000000000000000000000000ea
:1056d000013b800000002800008060000000e00026
:1056e000fbff3a0040002400003b8800f007200048
:1056f0000040780032e0b70001e02f001e0090006b
:10570000008f40001e007800ae0090000108bb0032
:105710000500fc0050052000303b8800a00a200056
:10572000303b880061e7a800000000000000000096
:1057300000000000013b80000000280000806000a5
:105740000000e000fbff3a000080fa0000000600c5
:020000040000fa
:10575000f03fb1000180b10006003500ee03090002
:1057600000000000403fb1000180b100fbff3d00a0
:105770001000b000203fb00002003500008009009a
:0857800000000000000006001b
:020000040000fa
:105788000008000040020000000000008e0a00002f
:105798001400000000000000400a00004e00000055
:1057a80000000000a20a0000140000000000000031
:0457b80000000000ed
:020000040000fa
:0200000400fffb
:04fc0000ff00000001
:020000040000fa
:0200000401f009
:04000000ffff0000fe
:020000040000fa
:0200000401f009
:04000800ffff0000f6
:020000040000fa
:0200000401f009
:04000c0018ff0000d9
:020000040000fa
:0200000401f009
:04001000d3ff00001a
:020000040000fa
:0200000401f009
:040014005fff00008a
:020000040000fa
:0200000401f009
:04001800efff0000f6
:020000040000fa
:0200000401f009
:04001c00feff0000e3
:00000001FF
