:020000040000fa
:080000000002040000000000f2
:020000040000fa
:10000800c80e0000c80e0000c80e0000c80e000090
:10001800c80e0000c80e0000c80e0000c80e000080
:10002800c80e0000c80e0000c80e0000001900002d
:10003800c80e0000c80e0000c80e0000ec19000031
:10004800c80e0000c80e0000c80e0000b01f000057
:10005800c80e0000c80e0000c80e0000c80e000040
:10006800c80e0000c80e0000c80e0000d819000015
:10007800c80e0000c80e0000c80e0000c80e000020
:10008800c80e0000c80e0000c80e0000c80e000010
:10009800c80e0000c80e0000a6200000c80e000010
:1000a800c80e0000c80e0000c80e0000c80e0000f0
:1000b800c80e0000c80e0000c80e0000c80e0000e0
:1000c800c80e0000c80e0000c80e0000c80e0000d0
:1000d800c80e0000c80e0000c80e0000c80e0000c0
:1000e800c80e0000c80e0000c80e0000c80e0000b0
:1000f800c80e0000c80e0000c80e0000c80e0000a0
:10010800c80e0000c80e0000c80e0000c80e00008f
:10011800c80e0000c80e0000c80e0000c80e00007f
:10012800c80e0000c80e0000c80e0000c80e00006f
:10013800c80e0000c80e0000c80e0000c80e00005f
:10014800c80e0000c80e0000c80e0000c80e00004f
:10015800c80e0000c80e0000c80e0000c80e00003f
:10016800c80e0000c80e0000c80e0000c80e00002f
:10017800c80e0000c80e0000c80e0000c80e00001f
:10018800c80e0000c80e0000c80e0000c80e00000f
:10019800c80e0000c80e0000c80e0000c80e0000ff
:1001a800c80e0000c80e0000c80e0000c80e0000ef
:1001b800c80e0000c80e0000c80e0000c80e0000df
:1001c800c80e0000c80e0000c80e0000c80e0000cf
:1001d800c80e0000c80e0000c80e0000c80e0000bf
:1001e800c80e0000c80e0000c80e0000c80e0000af
:0801f800c80e0000c80e000053
:020000040000fa
:10020800c80e0000c80e0000c80e0000c80e00008e
:10021800c80e0000c80e0000c80e0000c80e00007e
:10022800c80e0000c80e0000c80e0000001900002b
:10023800c80e0000c80e0000c80e0000ec1900002f
:10024800c80e0000c80e0000c80e0000b01f000055
:10025800c80e0000c80e0000c80e0000c80e00003e
:10026800c80e0000c80e0000c80e0000d819000013
:10027800c80e0000c80e0000c80e0000c80e00001e
:10028800c80e0000c80e0000c80e0000c80e00000e
:10029800c80e0000c80e0000a6200000c80e00000e
:1002a800c80e0000c80e0000c80e0000c80e0000ee
:1002b800c80e0000c80e0000c80e0000c80e0000de
:1002c800c80e0000c80e0000c80e0000c80e0000ce
:1002d800c80e0000c80e0000c80e0000c80e0000be
:1002e800c80e0000c80e0000c80e0000c80e0000ae
:1002f800c80e0000c80e0000c80e0000c80e00009e
:10030800c80e0000c80e0000c80e0000c80e00008d
:10031800c80e0000c80e0000c80e0000c80e00007d
:10032800c80e0000c80e0000c80e0000c80e00006d
:10033800c80e0000c80e0000c80e0000c80e00005d
:10034800c80e0000c80e0000c80e0000c80e00004d
:10035800c80e0000c80e0000c80e0000c80e00003d
:10036800c80e0000c80e0000c80e0000c80e00002d
:10037800c80e0000c80e0000c80e0000c80e00001d
:10038800c80e0000c80e0000c80e0000c80e00000d
:10039800c80e0000c80e0000c80e0000c80e0000fd
:1003a800c80e0000c80e0000c80e0000c80e0000ed
:1003b800c80e0000c80e0000c80e0000c80e0000dd
:1003c800c80e0000c80e0000c80e0000c80e0000cd
:1003d800c80e0000c80e0000c80e0000c80e0000bd
:1003e800c80e0000c80e0000c80e0000c80e0000ad
:0803f800c80e0000c80e000051
:020000040000fa
:100400004fa520000ebf20000e0188000000000054
:10041000000020000000e000020032000001200087
:1004200020028800140007005b0007000000e000c5
:1004300003003a0020bf2000010020000200370026
:100440000000200001002000810f70000100320038
:1004500014000700000020000000e000020032004d
:100460000000020000000000a608020000000000da
:100470000040da000000fe004440a90000202000f7
:100480000000e0000300320000002000a00188000e
:100490004440a800000006008a1f78008b1f7800e7
:1004a0000000060091018800800478000000eb0045
:1004b0001a003700e284440032a0b4009905ba0063
:1004c000e284440032a0b4009906ba00e2844400f9
:1004d00032a0b4000006eb00476fde00fd07b2005b
:1004e000636ce10003003a00ebff07000000eb0043
:1004f0000a003700606ce10004003a00005deb0088
:100500008b05e900fdff3e00040037006168e10053
:10051000010032000086eb000b00070019c7ba008b
:100520001905ba000e04e00003003a000a00e000da
:10053000e0ff3a0000000600fe07b2009e018800be
:100540008a047800f5ff3700395dba008b05e900b1
:100550000c003200295dba008b05e900080032006a
:100560000c00e00003003a00e284440032a0b40032
:10057000f5ff370019ddba008b05e900faff3a00f4
:100580008904e800e184440032a0b40000000600c1
:0c0590000040da000000fe000000050042
:020000040000fa
:10059c0000000000c1c0000081c10000400100004b
:1005ac0001c30000c00300008002000041c2000033
:1005bc0001c60000c00600008007000041c7000013
:1005cc0000050000c1c5000081c40000400400000b
:1005dc0001cc0000c00c0000800d000041cd0000db
:1005ec00000f0000c1cf000081ce0000400e0000c3
:1005fc00000a0000c1ca000081cb0000400b0000c3
:10060c0001c90000c00900008008000041c80000ba
:10061c0001d80000c01800008019000041d900006a
:10062c00001b0000c1db000081da0000401a000052
:10063c00001e0000c1de000081df0000401f000032
:10064c0001dd0000c01d0000801c000041dc00002a
:10065c0000140000c1d4000081d50000401500003a
:10066c0001d70000c01700008016000041d6000022
:10067c0001d20000c01200008013000041d3000022
:10068c0000110000c1d1000081d00000401000001a
:10069c0001f00000c03000008031000041f100008a
:1006ac0000330000c1f3000081f200004032000072
:1006bc0000360000c1f6000081f700004037000052
:1006cc0001f50000c03500008034000041f400004a
:1006dc00003c0000c1fc000081fd0000403d00001a
:1006ec0001ff0000c03f0000803e000041fe000002
:1006fc0001fa0000c03a0000803b000041fb000002
:10070c0000390000c1f9000081f8000040380000f9
:10071c0000280000c1e8000081e900004029000029
:10072c0001eb0000c02b0000802a000041ea000011
:10073c0001ee0000c02e0000802f000041ef0000f1
:10074c00002d0000c1ed000081ec0000402c0000e9
:10075c0001e40000c02400008025000041e50000f9
:10076c0000270000c1e7000081e6000040260000e1
:10077c0000220000c1e2000081e3000040230000e1
:10078c0001e10000c02100008020000041e00000d9
:10079c0001a00000c06000008061000041a10000c9
:1007ac0000630000c1a3000081a2000040620000b1
:1007bc0000660000c1a6000081a700004067000091
:1007cc0001a50000c06500008064000041a4000089
:1007dc00006c0000c1ac000081ad0000406d000059
:1007ec0001af0000c06f0000806e000041ae000041
:1007fc0001aa0000c06a0000806b000041ab000041
:10080c0000690000c1a9000081a800004068000038
:10081c0000780000c1b8000081b9000040790000e8
:10082c0001bb0000c07b0000807a000041ba0000d0
:10083c0001be0000c07e0000807f000041bf0000b0
:10084c00007d0000c1bd000081bc0000407c0000a8
:10085c0001b40000c07400008075000041b50000b8
:10086c0000770000c1b7000081b6000040760000a0
:10087c0000720000c1b2000081b3000040730000a0
:10088c0001b10000c07100008070000041b0000098
:10089c0000500000c1900000819100004051000008
:1008ac0001930000c05300008052000041920000f0
:1008bc0001960000c05600008057000041970000d0
:1008cc0000550000c19500008194000040540000c8
:1008dc00019c0000c05c0000805d0000419d000098
:1008ec00005f0000c19f0000819e0000405e000080
:1008fc00005a0000c19a0000819b0000405b000080
:10090c0001990000c0590000805800004198000077
:10091c0001880000c04800008049000041890000a7
:10092c00004b0000c18b0000818a0000404a00008f
:10093c00004e0000c18e0000818f0000404f00006f
:10094c00018d0000c04d0000804c0000418c000067
:10095c0000440000c1840000818500004045000077
:10096c0001870000c047000080460000418600005f
:10097c0001820000c042000080430000418300005f
:10098c0000410000c1810000818000004040000057
:020000040000fa
:10099c001400fa0010c0b300604f98002000200033
:1009ac0001002000000f9800110f9800a400070010
:1009bc000004e0006f0032006c004700ab00070041
:1009cc00000f78001e007800104078000080fb00bb
:1009dc0011082000810f5000460032001108200041
:1009ec00810f500007003c00f1072000810f5000e0
:1009fc000b00320001082000810f50000e00320065
:100a0c005c00370021082000810f50004a003200a2
:100a1c0031082000810f50004e0032005500370085
:100a2c006e0047001200200080007800f0c7b30071
:100a3c00e60007004f003700110020001e00780070
:100a4c004e00070010079800210798001e01900027
:100a5c00ae019000f003200001002000020278009b
:100a6c000301780080017800010078000302620025
:100a7c00000061008000eb00c000dd0000002000e1
:100a8c000001be006120b80000017100818171007d
:100a9c00e00f5100e08f590035003a001e01900024
:100aac00ae019000f01f200001002000800f5100cb
:100abc00818f5900090036001e019000ae01900094
:100acc00e07f200001002000800f5100818f590031
:100adc0002003e0000000000260037001e009000bf
:100aec00ae0090008e02070000c8b3004d00070056
:100afc00200037001e00e800904078006147980005
:100b0c00210020001e0078001c0007004007980000
:100b1c00510798001e007800680040000001780022
:100b2c004e009000de0090009c02070010c8b3003d
:100b3c003c0007000f00370020c8b3003900070045
:100b4c0000c4290001002000150307004c02070017
:100b5c000800370070004700420020008000780039
:100b6c00f0c7b30099000700000000000100370037
:100b7c00000000000080fa00000006000400fa00eb
:100b8c00000f7800110798001e0090001e00400016
:100b9c00104078000081fb008001eb001e009000eb
:100bac000000e8001e004000104078000082fb00ae
:100bbc008002eb004828dd00c820de0081007000b8
:100bcc004820dd0000017100818171001e00900041
:100bdc000080e8001e004000104078000080fb0000
:100bec008000eb00c000dd0000002000000171005f
:100bfc00818171001e009000630040001e004000c7
:100c0c00104078000080fb008000eb00c800dd0085
:100c1c000000200000007100818071000080fa004b
:100c2c00000006000200fa00004f780011002000be
:100c3c000e007800320007000080fa000000060069
:100c4c000000fa0081a420009140780049cabf003e
:100c5c0080cf50000200320010c0b30001003700fa
:100c6c000040eb000080fa00000006000400fa00cf
:100c7c001007980081a420009140780049cabf0059
:100c8c0080cf50001800320049cabf000080fb0022
:100c9c0001a420000000400000804000900078007b
:100cac001e009000010878000380200092a4200010
:100cbc00124178008280fb00000920000088b900f6
:100ccc0000007800008f41000240e80049eab700bc
:100cdc0049cabf00e34f500001003600496aef00db
:100cec001e007800040037001e0090008000eb000e
:100cfc00010878000000eb000080fa0000000600fc
:100d0c000800fa0020079800310798000e80e800d0
:100d1c005a020700a0c5b300810007003e009000f6
:100d2c004800de00004078007d0007003e00900087
:100d3c004800de00804078000e80e8005602070074
:100d4c003e00900000407800750007003e009000c7
:100d5c00804078000e80e8004f0207000000eb0096
:100d6c00000f78000c0037001e007800ae009000d9
:100d7c000080400010407800690007001e007800d9
:100d8c00ae00900000804000904078000e80e8009b
:100d9c00410207001e0fe8009e0078003e00900004
:100dac00808f5000f0ff39001e0090004800de00dc
:100dbc00004078005a0007001e00900000407800a8
:100dcc00570007000080fa00000006000a00fa0035
:100ddc004047980031079800420798000e80e800c1
:100dec0026020700a0c5b3004d0007004e0090007e
:100dfc000000e8004800de000040780048000700d2
:100e0c004e0090000000e8004800de0080407800b2
:100e1c000e80e800200207004e0090000040780091
:100e2c000040e8003e0007004e00900000407800b3
:100e3c008040e8000e80e800170207004e4090004a
:100e4c00370007000e80e800ce4090001202070029
:100e5c000000eb00000f78000c0037001e0078003b
:100e6c00be00900000804000104078002c0007006d
:100e7c001e007800be00900000804000904078007a
:100e8c000e80e800040207001e0fe8009e007800a8
:100e9c004e009000808f5000f0ff39001e00900033
:100eac004800de00004078001d0007001e00900086
:100ebc00004078001a0007000080fa0000000600cd
:100ecc000000fa00210480000080200000806000f7
:100edc0000f0a7000000ea000000ea004f00de006e
:100eec00004078000080fa00000006000200fa00c2
:100efc0000000000210480000080200000806000c1
:100f0c000000e000fbff320030118000004f780041
:100f1c008560a9001e4078000080fa0000000600e1
:100f2c000200fa00004f7800000000001111800050
:100f3c0000202000008060000000e000fbff3a0071
:100f4c001e80fb00201188000080fa0000000600c3
:100f5c000400fa00daff07000004e0006f00320022
:100f6c00e2ff0700004f780050528000e20f500063
:100f7c0020003200e20f500005003e000000e000af
:100f8c000a003200e10f5000110032006a003700f5
:100f9c00e40f50003e003200e40f500026003900f0
:100fac00e50f50004400320063003700a0c5b300c9
:100fbc009e40780080cf50005a003a00100020006c
:100fcc00505288000e80e800ac0107005a00370030
:100fdc001e80fb004800dd00605288000e80e80097
:100fec009e407800ac010700200020005052880081
:100ffc00510037009e80fb006052800001007000a1
:10100c00605288000e80e8009e407800a201070024
:10101c006152800000092000808f500004003e00c7
:10102c004e2aef003000200050528800420037005a
:10103c004a2aef00400037000e80e8009e407800fe
:10104c009501070048cabf008080fb0072528000e7
:10105c00000920000088b9000000780082004000e0
:10106c0000802000008040001e4878000200e8004c
:10107c00705288007152800060528000808f500046
:10108c002a00390040002000505288002a00370006
:10109c009e80fb001e0090004800de00808f5000f8
:1010ac0003003a0050002000505288002200370004
:1010bc004a2aef00200037009e80fb001e019000a2
:1010cc00f00f200000006100808f50000a003a00f1
:1010dc0048cabf000080fb006152800002a42000bf
:1010ec0000004000000041000108780048cabf0021
:1010fc000040e80048eab7004a2aef0048cabf009f
:10110c000040e80048eab70048cabf00e34f50006f
:10111c0008003600486aef000700370000000000a6
:10112c00050037000000000003003700000000003d
:10113c0001003700000000000080fa0000000600eb
:10114c000400fa000000eb00000f78000040eb00f8
:10115c00204798000040eb0030479800ce00070075
:10116c00003a8000610060000000e00004003a00da
:10117c00003a8000620060000000e00009003200cc
:10118c004007a9004027a900a700070050168000bf
:10119c00680060000000e00009003200b8000700a1
:1011ac0007003700611680000020200000806000de
:1011bc000000e0000200320020002000000f780048
:1011cc00501680006800600000f0a7000000ea00e4
:1011dc000000e9004f00de000040780050eab70044
:1011ec00cc02a80000fa2000010020006c010700ce
:1011fc00cc02a90000fa20000100200068010700c1
:10120c000300370000000000010037000000000060
:10121c004fff0700defd070020048000680060001f
:10122c000000e000f7ff32008460a9005016800037
:10123c006800600000f0a7000000ea000000e90070
:10124c004f00de008040780050cabf000080fb00d9
:10125c000000e9004f00de000040780000c0600094
:10126c0051eab700501680006800600000f0a7003b
:10127c000000ea000000e9004f00de0000407800aa
:10128c0050eab7001e007800e10f50000d0032004c
:10129c00e10f500005003900e20f50001e00320033
:1012ac00e30f5000310032004400370051cabf0038
:1012bc000004e0003c00320010002000000f780019
:1012cc003e003700cde2a800cd02a80000c42900e2
:1012dc000100200032010700cd82a800c462a800e2
:1012ec0000d42000310020002d010700c4e2a8002a
:1012fc00cda2a800cc82a800cd22a80000a8210075
:10130c006100200026010700c482a80020002000f4
:10131c00000f78002900370052cabf000004e0001b
:10132c002300320050168000680060000000e000ce
:10133c000b003a002e4090000040e8002047980037
:10134c002e409000e84f50001b003600300020006b
:10135c00000f78000040eb00204798001700370082
:10136c000040eb002047980014003700c482a9000d
:10137c00cd22a900cd82a900c462a900cc82a9000b
:10138c00c4e2a900cda2a90000502300c100200096
:10139c0003010700cd02a900cde2a9000000eb007b
:1013ac00000f780005003700000000000300370034
:1013bc0000000000010037000000000052cabf000e
:1013cc000004e0000c003200526aef0053cabf0068
:1013dc000004e00004003200cd42a800cd62a90058
:1013ec00536aef0004003700cd42a900cd62a8007b
:1013fc0010c0b30053eab7003e4090000040e80034
:10140c0030479800be40900010c3b30080cf50000e
:10141c007eff360010c0b30052eab7000040eb006c
:10142c00304798007aff37000200fa000040eb00ca
:10143c00004f78000b003700cd42a900cd62a80008
:10144c0000502300c1002000d5000700cd42a800a9
:10145c00cd62a90000502300c1002000d00007007d
:10146c001e4fe8001e4078000004e000f2ff32003e
:10147c00cd42a900cd62a9000080fa000000060050
:10148c000000fa001d000700000e04000000000020
:10149c000080fa00000006000000fa007002200034
:1014ac00001688007000200000278800f00e240031
:1014bc0040168800e224ef009a21ef00c4c2a90074
:1014cc0000012000401188002222ef002022ef00b2
:1014dc002062a80021e2a8008560a9002342a80090
:1014ec000421ef00f0c32900100888008460a900d3
:1014fc0005e1a8000080fa00000006000000fa00d8
:10150c002822ef002222ef002022ef000421ef001e
:10151c000080eb00100888000080fa000000060034
:10152c000600fa0010079800210798001e00900092
:10153c00ae0090004008de000040780032e0b700ba
:10154c009e009000010f78001e0078008000eb00d8
:10155c000108bb0080052400003b88000500fc004e
:10156c0050052000303b8800a00a2000303b88004a
:10157c0061e7a8000000000000000000000000006f
:10158c00013b800000002800008060000000e000ab
:10159c00fbff3a000080fa00000006000a00fa0087
:1015ac00200798003107980042079800400024005b
:1015bc00003b88002e009000be0090004008de002a
:1015cc000040780032e0b700ae009000010f7800c8
:1015dc000000eb0010079800150037001e0090006b
:1015ec004200dd00ce009000008040001000be00e4
:1015fc00800078001e0078000108bb001e009000df
:10160c004200dd00ce009000008040001000be00c3
:10161c004008de00800078001e0078000188bb00c6
:10162c001e8fe8001e0090000000e80010079800d4
:10163c001e009000ff0f5000e8ff36000500fc0074
:10164c0050052000303b8800a00a2000303b880069
:10165c0061e7a8000000000000000000000000008e
:10166c00013b800000002800008060000000e000ca
:10167c00fbff3a000080fa00000006000200fa00ae
:10168c00000f78001e0078008080eb0001087800c5
:10169c000080fa00000006000600fa00100798000f
:1016ac00414798001e0090001000780080407800a0
:1016bc004e40900000cf68001e0090001000780093
:1016cc00c800de001e009000010878001e0090008b
:1016dc00900078001e80fb0000014000e02c2800e8
:1016ec000000410010007800808068001e0090000f
:1016fc00010878001e009000100078000080fa00ad
:10170c00000006000800fa00200798003107980036
:10171c000080eb00000f7800130037002e009000c3
:10172c00904078001e0078000040780000c06800ef
:10173c00204798002e0090000000e8002007980039
:10174c001e0078004800de00000f78002e4090004c
:10175c000080fb0080004000e02c2800008040004e
:10176c00100078001e0f68003e00900000f0a700eb
:10177c000000ea000000ea004f00de0000407800a4
:10178c00be0090008100e900310798000004e000e1
:10179c00e2ff3a001e0078000080fa00000006000c
:020000040000fa
:1017ac00f03fb1000180b10006003500ee030900e6
:1017bc0000000000403fb1000180b100fbff3d0084
:1017cc001000b000203fb00002003500008009007e
:0817dc000000000000000600ff
:020000040000fa
:1017e400500a00000400000000000000000800008f
:1017f4004002000000000000400a00001000000049
:081804000000000000000000dc
:020000040000fa
:101c0000afaa20000ebf20000e01880000000000d7
:101c1000000020000000e00002003200000120006f
:101c200020028800140007005b0007000000e000ad
:101c300003003a00405d220001002000020037004e
:101c40000000200001002000810f70000100320020
:101c500014000700000020000000e0000200320035
:101c600000000200000000007213020000000000eb
:101c70000040da000000fe004440a900403420008b
:101c80000000e0000300320000002000a0018800f6
:101c90004440a800000006008a1f78008b1f7800cf
:101ca0000000060091018800800478000000eb002d
:101cb0001a003700e284440032a0b4009905ba004b
:101cc000e284440032a0b4009906ba00e2844400e1
:101cd00032a0b4000006eb00476fde00fd07b20043
:101ce000636ce10003003a00ebff07000000eb002b
:101cf0000a003700606ce10004003a00005deb0070
:101d00008b05e900fdff3e00040037006168e1003b
:101d1000010032000086eb000b00070019c7ba0073
:101d20001905ba000e04e00003003a000a00e000c2
:101d3000e0ff3a0000000600fe07b2009e018800a6
:101d40008a047800f5ff3700395dba008b05e90099
:101d50000c003200295dba008b05e9000800320052
:101d60000c00e00003003a00e284440032a0b4001a
:101d7000f5ff370019ddba008b05e900faff3a00dc
:101d80008904e800e184440032a0b40000000600a9
:101d90000040da000000fe0000000500839f68009c
:101da0000100e00002003d0060001000e08018002b
:101db0000300e00002003d0060011100e081190015
:101dc000090007004f00e00002003b006000100027
:101dd000e080180000000600140020001200370008
:101de0006011b8002b0037006022b8000602200006
:101df0000000d0008180d2000482d2008582d2000f
:101e00000000a0000202520083825a000300310049
:101e10000202420083824a000000a1000603e9009a
:101e2000f3ff3a0000000600889fbe008a9fbe00b4
:101e3000841f78006c0007004f0078001100330009
:101e4000f0ff2f00838f6c0006003b000405650047
:101e50000a00a7000800370009f0a60010002000c3
:101e600008003700820f5400838f5c0003003900a4
:101e70001000200001003e000000200009f0a70033
:101e80000000ea004f05be004f04be000000e00065
:101e900000000600889fbe008a9fbe00008270007e
:101ea0000402710004827100260032000004be00aa
:101eb0000200be006011b8006b09200095022000ee
:101ec0000182cf000a0039000541b1000082cf0035
:101ed000070039000541b1000982cf000400390034
:101ee0000541b1000882cf00010039000541b10071
:101ef00005425200120032000a003b00828171004c
:101f0000610164008100d1000080d3008984d30086
:101f10000884d3008b05e8000442e800f7ff3a008c
:101f2000070037000804440089844c000000480082
:101f3000818048008b05e9000442e900f9ff3a007e
:101f4000030007004f05be004f04be00000006005e
:101f500081002000618055000b003d000b00200037
:101f600061fe2f000100e1001d003400828171003c
:101f7000610164008904d1000884d3000000e800f6
:101f8000faff3a0071002000610064000300700055
:101f9000020060000900320061044400e0844c004b
:101fa0000988a500050032008b05e8006808e100fb
:101fb00002003a008904d1000884d300f20f200007
:101fc0000258e10005003d00c75ddd00f907b200e1
:101fd0008980750008007800000006000bf82700d3
:101fe0008b007800000005000004be00060007001a
:101ff0000003be000405be000200be000200070090
:10200000844f750000000600c70ade00f107b20029
:10201000f50fb20008003200e1cf420002003200aa
:102020000170a00024000500810f70000100320043
:102030000408050044000500810f700002003a000a
:10204000140005008502e9000000400081c048003e
:0c205000fcff3b000170a0002400050014
:020000040000fa
:10205c0000000000c1c0000081c100004001000070
:10206c0001c30000c00300008002000041c2000058
:10207c0001c60000c00600008007000041c7000038
:10208c0000050000c1c5000081c400004004000030
:10209c0001cc0000c00c0000800d000041cd000000
:1020ac00000f0000c1cf000081ce0000400e0000e8
:1020bc00000a0000c1ca000081cb0000400b0000e8
:1020cc0001c90000c00900008008000041c80000e0
:1020dc0001d80000c01800008019000041d9000090
:1020ec00001b0000c1db000081da0000401a000078
:1020fc00001e0000c1de000081df0000401f000058
:10210c0001dd0000c01d0000801c000041dc00004f
:10211c0000140000c1d4000081d50000401500005f
:10212c0001d70000c01700008016000041d6000047
:10213c0001d20000c01200008013000041d3000047
:10214c0000110000c1d1000081d00000401000003f
:10215c0001f00000c03000008031000041f10000af
:10216c0000330000c1f3000081f200004032000097
:10217c0000360000c1f6000081f700004037000077
:10218c0001f50000c03500008034000041f400006f
:10219c00003c0000c1fc000081fd0000403d00003f
:1021ac0001ff0000c03f0000803e000041fe000027
:1021bc0001fa0000c03a0000803b000041fb000027
:1021cc0000390000c1f9000081f80000403800001f
:1021dc0000280000c1e8000081e90000402900004f
:1021ec0001eb0000c02b0000802a000041ea000037
:1021fc0001ee0000c02e0000802f000041ef000017
:10220c00002d0000c1ed000081ec0000402c00000e
:10221c0001e40000c02400008025000041e500001e
:10222c0000270000c1e7000081e600004026000006
:10223c0000220000c1e2000081e300004023000006
:10224c0001e10000c02100008020000041e00000fe
:10225c0001a00000c06000008061000041a10000ee
:10226c0000630000c1a3000081a2000040620000d6
:10227c0000660000c1a6000081a7000040670000b6
:10228c0001a50000c06500008064000041a40000ae
:10229c00006c0000c1ac000081ad0000406d00007e
:1022ac0001af0000c06f0000806e000041ae000066
:1022bc0001aa0000c06a0000806b000041ab000066
:1022cc0000690000c1a9000081a80000406800005e
:1022dc0000780000c1b8000081b90000407900000e
:1022ec0001bb0000c07b0000807a000041ba0000f6
:1022fc0001be0000c07e0000807f000041bf0000d6
:10230c00007d0000c1bd000081bc0000407c0000cd
:10231c0001b40000c07400008075000041b50000dd
:10232c0000770000c1b7000081b6000040760000c5
:10233c0000720000c1b2000081b3000040730000c5
:10234c0001b10000c07100008070000041b00000bd
:10235c0000500000c190000081910000405100002d
:10236c0001930000c0530000805200004192000015
:10237c0001960000c05600008057000041970000f5
:10238c0000550000c19500008194000040540000ed
:10239c00019c0000c05c0000805d0000419d0000bd
:1023ac00005f0000c19f0000819e0000405e0000a5
:1023bc00005a0000c19a0000819b0000405b0000a5
:1023cc0001990000c059000080580000419800009d
:1023dc0001880000c04800008049000041890000cd
:1023ec00004b0000c18b0000818a0000404a0000b5
:1023fc00004e0000c18e0000818f0000404f000095
:10240c00018d0000c04d0000804c0000418c00008c
:10241c0000440000c184000081850000404500009c
:10242c0001870000c0470000804600004186000084
:10243c0001820000c0420000804300004183000084
:10244c0000410000c181000081800000404000007c
:10245c000000000000000000e2040000000000008a
:10246c005d00000000000000e2040000000000001d
:10247c006800000000000000b00400000000000034
:10248c0075000000000000007e0400000000000049
:10249c0083000000000000004c040000000000005d
:1024ac0093000000000000001a040000000000006f
:1024bc00a500000000000000e80300000000000080
:1024cc00b900000000000000b6030000000000008e
:1024dc00cf0000000000000084030000000000009a
:1024ec00e7000000000000005203000000000000a4
:1024fc0001010000000000002003000000000000ab
:10250c001d01000000000000ee02000000000000b1
:10251c003d01000000000000bc02000000000000b3
:10252c005e010000000000008a02000000000000b4
:10253c0083010000000000005802000000000000b1
:10254c00a9010000000000002602000000000000ad
:10255c00d201000000000000f401000000000000a7
:10256c00fc01000000000000c2010000000000009f
:10257c002802000000000000900100000000000094
:10258c0054020000000000005e010000000000008a
:10259c0080020000000000002c0100000000000080
:1025ac00ab02000000000000fa0000000000000078
:1025bc00d502000000000000c80000000000000070
:1025cc00fd0200000000000096000000000000006a
:1025dc002203000000000000640000000000000066
:1025ec004503000000000000320000000000000065
:1025fc006303000000000000000000000000000069
:10260c007f03000000000000ceff0000ffff000071
:10261c0096030000000000009cff0000ffff00007c
:10262c00ab030000000000006aff0000ffff000089
:10263c00bc0300000000000038ff0000ffff00009a
:10264c00cb0300000000000006ff0000ffff0000ad
:10265c00d603000000000000d4fe0000ffff0000c5
:10266c00e003000000000000a2fe0000ffff0000dd
:10267c00e80300000000000070fe0000ffff0000f7
:10268c00ff0300000000000070fe0000ffff0000d0
:10269c00ffff0000053000003e6e00000008000047
:1026ac0000170000ffff00000419000000000000ec
:1026bc0000000000e3ff0000ff01000033040000f5
:1026cc00c8ff0000ff010000206e000071ff000039
:0826dc00ff00000021df0000f7
:020000040000fa
:1026e4001200fa00881f78000000eb00000f780049
:1026f4000000eb00100798000040eb000057980022
:102704000040eb00404798000040eb005047980021
:102714000040eb00604798000040eb0070479800d1
:102724000040eb00004f98000000eb0050079800b9
:102734000040eb00404f98000040eb00504f9800e1
:102744000040eb00604f980043020700cde2a80070
:10275400060207006116800000202000008060004f
:102764000000e0000600320020002000000f780086
:1027740003003700000000000100370000000000e3
:102784004103070045cabf000004e000f9ff32001e
:10279400456aef00501680006800600000f0a70052
:1027a4000000ea000000e9004f00de0080407800ed
:1027b4004e4090000080fb000000e9004f00de0066
:1027c4000040780000c06000005798005016800058
:1027d4006800600000f0a7000000ea000000e900c3
:1027e4004f00de00404798001e009000e20f5000aa
:1027f40034003200e20f500005003e000000e0000b
:102804000a003200e10f5000170032007d0037004b
:10281400e40f500061003200e40f5000370039002b
:10282400e50f500067003200760037005116800033
:1028340000002400008060000000e000030032007b
:1028440020002000100798006e0037001e0078005a
:102854000000e00064003200eb05070010002000d7
:1028640010079800670037006e4090000004e000f5
:102874000300320020c0b30046eab700010037006d
:10288400466aef00511680000000240000806000ba
:102894000000e00004003200e105070020002000f1
:1028a40010079800570037001e0078000000e00071
:1028b4004f003a00da0507000000eb00100798000b
:1028c400500037000040eb00504f98000040eb00f0
:1028d400604f980010c0b30047eab7000040eb0017
:1028e4005047980030c0b30046eab700d20507004d
:1028f4003000200010079800420037005116800075
:1029040000002400008060000000e00009003a009c
:102914000000eb0010079800cd050700476aef00a0
:102924008000eb0040c1b3003b010700466aef00a2
:1029340034003700105280008000eb0027fd0700b0
:1029440018c0b300020024002349240021fd07001d
:102954000000e000010035000044eb000804e00042
:10296400060032007e4090000004e00003003200c4
:1029740010c0b30046eab7000200370030c0b3000d
:1029840046eab7005e4090000004e0001a003200fe
:1029940040002000100798001a0037008000eb0068
:1029a40040c1b3001c01070010c0b30046eab700e1
:1029b400476aef00a60507005000200010079800a2
:1029c40010003700511680000000240000806000d1
:1029d4000000e0000a003a000000eb001007980035
:1029e400466aef00070037000000000005003700ca
:1029f4000000000003003700000000000100370061
:102a0400000000001e007800e10f50002a00320090
:102a1400e10f500005003900e20f50003c00320085
:102a2400e30f500058003200680037001e00900089
:102a34000000e0001a003a005016800068006000b0
:102a44000000e00016003200cd42a900cd62a900ca
:102a54000040eb0038010700cde2a9002342a900a1
:102a64003342a90021e3a90062e0a8006380a80022
:102a74008660a9009660a8000040fe009660a90048
:102a84008660a90021e3a800501680001057980022
:102a940062e0a9006380a9002342a800cde2a80057
:102aa4000e5090000004e0004500320010002000a9
:102ab400000f780045003700cd02a80000c42900ab
:102ac4000100200029080700cd82a800c462a800e4
:102ad40000d420003100200024080700c4e2a8002c
:102ae400cda2a800cc82a800cd22a80000a8210075
:102af400610020001d080700c482a80030c0b30094
:102b040050eab70020002000000f78002f003700a3
:102b140044cabf000004e00003003200300020007b
:102b2400000f7800446aef005016800068006000cf
:102b34000000e00011003a005e0090000000e80090
:102b440050079800de00900020032000808f500082
:102b540001003a00d6030700de00900000192000af
:102b6400808f50001800360030002000000f7800dd
:102b74000000eb0050079800140037000000eb0041
:102b84005007980011003700c482a900cd22a90083
:102b9400cd82a900c462a900cc82a900c4e2a90024
:102ba400cda2a90000502300c1002000ef070700b8
:102bb400cd02a9000000eb00000f780003003700ed
:102bc4000000000001003700000000000e489000e3
:102bd4000004e000840032000040eb00004f980045
:102be4007e4090000080fb000000e9004f00de0002
:102bf400704798000401070000528800ee000700a7
:102c0400105288001e007800e20f50001f003a00a6
:102c140050528000820707007052880050cabf00db
:102c24000080fb000000ea004f00de0080407800d6
:102c3400705280008a00070050cabf000004e00000
:102c44000300320050cabf000040e90050eab70058
:102c54007152800020352000808f5000090034001c
:102c64007e4890000040e800704f98007e48900035
:102c7400ea4f50000500340010c0b30044eab70026
:102c8400020037000040eb00704f98001e007800ef
:102c9400e20f500027003a00511680000000240083
:102ca400008060000000e00022003a000152800031
:102cb40090032200808f50000f003e006e48900069
:102cc4000040e800604f98006e489000e54f5000c7
:102cd4001d00340010c0b30044eab7000040eb000c
:102ce40060479800cd42a900cd62a9000040eb00e6
:102cf400604f9800150037000040eb00604f9800cb
:102d04000152800070642200808f500006003e0053
:102d14006e4090000080fb000000e9004f00de00e0
:102d240060479800090037000040eb0060479800b6
:102d3400060037000040eb00604798000040eb00bd
:102d4400604f9800010037000000000047cabf0030
:102d54000004e00010003200115280003006200010
:102d6400808f500009003e005e4890000040e8005b
:102d7400504f98005e489000ea4f5000080034001d
:102d840010c0b30050479800050037000040eb0026
:102d9400504f9800020037000040eb00504f98005d
:102da4001e009000e30f500008003a0010c0b3006a
:102db40061000700410d230050c1b3001600070055
:102dc4004151200040c1b300130007001e009000d1
:102dd400e30f5000030032001e009000e10f50008a
:102de40001003a007c0407004e4890000040e800cf
:102df400404f9800ce48900010c3b30080cf5000dd
:102e04005efe360010c0b300004f98000040eb0097
:102e1400404f98005afe37000400fa00004f780033
:102e2400110798008d05070020c1b300cf050700e6
:102e34001e407800cd0507001e0090000040780079
:102e4400ca0507001e0090004800de00004078001c
:102e5400c6050700a70507000080fa000000060069
:102e64000800fa0020079800614798002e0090009f
:102e7400cf80de00522120000289b90002017800cf
:102e84006003b9008601780003014100532120004a
:102e94000300b800010141008200780032b228002a
:102ea400c3ff2f0000004100818049004809dd0074
:102eb4004802de0004027100c88ade00048fbe00ee
:102ec4001e00be00e00f5000e08f580002003d00dd
:102ed4006000b800008fbe00e2062000030020005e
:102ee4001e0f41005e974900f00f200001002000f2
:102ef4001e01be00800f5100818f59000300340071
:102f0400f00f200001002000008fbe006e409000f2
:102f14000004e00004003a001e007800004078003d
:102f240000c0ea00010037000040eb0092e1b70066
:102f34000080fa00000006000200fa00004f78004a
:102f44001e4078000004e000020032004092270096
:102f540001003700509227008000780020c1b300a0
:102f6400adff07000080fa00000006000200fa002e
:102f74000040eb00004f78000a00370010c0b30097
:102f840046eab700007c220091002000f706070003
:102f9400466aef00007c220091002000f30607003f
:102fa4001e4fe8001e407800e14f5000f3ff36004a
:102fb4000080fa00000006000000fa004052800081
:102fc4008000eb0062aa2b000289b900020178009c
:102fd4006002b900840178000301410063aa2b0058
:102fe4000300b80001014100820078004209dd00bd
:102ff4004e00de0000007100ce08de000000780004
:103004000080fa00000006000000fa006052800010
:103014008000eb0002b123000289b90002017800ac
:103024006302b900840178000301410003b1230065
:103034000300b80001014100820078004209dd006c
:103044004e00de0000007100ce08de0000007800b3
:103054000080fa00000006000000fa007002200060
:10306400001688007000200000278800f00e24005d
:1030740040168800e224ef0000012000401188007f
:103084002222ef002022ef002062a80021e2a80003
:103094008560a9009560a8002342a800001a2000ba
:1030a400c01188003222ef003022ef003062a80005
:1030b40031e2a80087c0a90097c0a8003342a80045
:1030c4000421ef00f0c32900100888008460a900df
:1030d40005e1a80021058000f0ff280000806000c1
:1030e40000e0a000200588009460a800900f200054
:1030f400400888000a21ef0051088000c0ff2f001b
:10310400008060000010a0005008880084e0a9003e
:103114000a41a80031058000f0ff2800008060000b
:1031240000e0a0003005880094e0a800f00f200023
:10313400a00888001621ef00b1088000c0ff2f000e
:1031440000806000b00888001641a8003c01a80077
:103154009261ef00810c800000ff2f00008060006e
:10316400c000b300800c8800810c8000f0fc2f00ac
:1031740000806000800c88009a21ef009a01a8006a
:10318400000e2200001988002223ef0010402000c6
:10319400201988002823ef0070002000801988007f
:1031a400de24ef0085a0a90021e3a8000080fa0036
:1031b400000006000000fa002822ef002222ef009f
:1031c4002022ef009560a9003822ef003222ef00a0
:1031d4003022ef0097c0a8000421ef009460a900fa
:1031e4000a21ef0094e0a9001621ef0021e3a900d1
:1031f4009a21ef000080fa0000000600809fbe00c4
:10320400829fbe003400f80000002000a001880066
:103214000200fa008460a90010c0b30045eab700b8
:1032240052cabf000080fb00e10f50000e003200c4
:10323400ed0f5000160032000000e0004e003a008e
:1032440053cabf000080fb00011880000001400049
:1032540040a52000000041000108780010c0b30020
:1032640052eab7004700370053cabf000080fb0092
:10327400011880000001400040a620000000410029
:1032840001087800d0c0b30052eab7003d0037000f
:1032940053cabf008080fb00021880008181400077
:1032a40041a7200081804100820878000040e800a6
:1032b40053eab700526aef0053cabf00e74f500009
:1032c4002f003600536aef00482aef004a2aef0025
:1032d4004c2aef000040eb00004f78001900370043
:1032e4001e80fb008000400040a5200000804000bc
:1032f40090007800405280000080400040528800d6
:103304001e80fb008000400040a62000008040009a
:103314009000780050528000008040005052880095
:103324001e80fb008000400040a720000080400079
:103334009000780060528000008040006052880055
:103344001e4fe8001e407800e74f5000e4ff3600af
:10335400405280004300de004052880050528000fa
:103364004300de0050528800605280004300de00bb
:103374006052880003003700526aef0001003700f2
:103384000000000052cabf000080fb006f00600014
:10339400401988002023a8000080fa003400f900b6
:1033a4004f01be004f00be00004006003400f8008c
:1033b400881f780008002000a80188004f047800c6
:1033c4000000fa008660a9000080fa003400f900c9
:1033d40000400600801f78003400f8000000200040
:1033e400a00188000000fa0084e0a90046cabf00da
:1033f4000080fb00e10f50000d003200e10f50008f
:1034040003003c000000e000060032001a00370010
:10341400e20f500009003200e30f50000a003200ae
:1034240015003700cd42a900cd62a9001200370073
:10343400cd42a900cd62a8000f003700cd42a800fc
:10344400cd62a9000c00370051cabf000004e0009f
:1034540004003200cd42a900cd62a800516aef00f9
:1034640005003700cd42a800cd62a90010c0b3000a
:1034740051eab700000000000080fa003400f900af
:103484004f007800004006001a00fa00889fbe0032
:1034940020002000000f7800910107000004e000e4
:1034a4008001320066004700980107001007980069
:1034b4001e009000104078000080fb00e30f5000d5
:1034c4000f003200e30f500005003c000000e00054
:1034d4001c003200e10f50008200320071013700fd
:1034e400e50f500052013200e50f50008200350014
:1034f400f1072000810f50000a00320069013700f3
:1035040030c0b3006f01070000c42900010020008f
:103514009605070027ff07000002040000000000d2
:10352400600137000040eb00004f9800680047003e
:103534001200200080007800f0c7b300cb01070020
:10354400580137000040eb00404798004e4090007f
:103554000080fb0041a82000914078000000470053
:10356400114898004e4090000040e8004047980001
:103574004e4090000080fb0051a82000914078004c
:1035840000004700114898004e4090000040e800b9
:10359400404798004e4090000080fb00315480006a
:1035a400c808de00814078000000470011489800f8
:1035b4004e4090000040e800404798004e40900084
:1035c4000080fb00315480008140780000004700f7
:1035d400114898004e4090000040e8004047980091
:1035e4004e4090000080fb0041548000c808de007b
:1035f4008140780000004700114898004e40900038
:103604000040e800404798004e4090000080fb00d6
:103614004154800081407800000047001148980020
:103624004e4090000040e800404798004e40900013
:103634000080fb0051548000c808de0081407800ff
:1036440000004700114898004e4090000040e800f8
:10365400404798004e4090000080fb005154800089
:103664008140780000004700114898004e409000c7
:103674000040e800404798004e4090000080fb0066
:1036840061548000c808de008140780000004700d3
:10369400114898004e4090000040e80040479800d0
:1036a4004e4090000080fb0061548000814078000f
:1036b40000004700114898004e4090000040e80088
:1036c400404798004e4090008080fb00690047000e
:1036d40001017800800078000040eb0063010700de
:1036e400f000370010c0b300f600070010c0b300ac
:1036f40044eab700eb0037000040eb004047980075
:103704004e4090000080fb0041a8200091407800ca
:1037140000004700114898004e4090000040e80027
:10372400404798004e4090000080fb0051a82000c4
:103734009140780000004700114898004e409000e6
:103744000040e800404798004e4090000080fb0095
:1037540031548000c808de00814078000000470032
:10376400114898004e4090000040e80040479800ff
:103774004e4090000080fb0031548000814078006e
:1037840000004700114898004e4090000040e800b7
:10379400404798004e4090000080fb004154800058
:1037a400c808de00814078000000470011489800f6
:1037b4004e4090000040e800404798004e40900082
:1037c4000080fb00415480008140780000004700e5
:1037d400114898004e4090000040e800404798008f
:1037e4004e4090000080fb0051548000c808de0069
:1037f4008140780000004700114898004e40900036
:103804000040e800404798004e4090000080fb00d4
:10381400515480008140780000004700114898000e
:103824004e4090000040e800404798004e40900011
:103834000080fb0061548000c808de0081407800ed
:1038440000004700114898004e4090000040e800f6
:10385400404798004e4090000080fb006154800077
:103864008140780000004700114898004e409000c5
:103874000040e800404798004e4090000080fb0064
:1038840001528000c808de00814078000000470033
:10389400114898004e4090000040e80040479800ce
:1038a4004e4090000080fb0001528000814078006f
:1038b40000004700114898004e4090000040e80086
:1038c400404798004e4090000080fb001152800059
:1038d400c808de00814078000000470011489800c5
:1038e4004e4090000040e800404798004e40900051
:1038f4000080fb00115280008140780000004700e6
:10390400114898004e4090000040e800404798005d
:103914004e4090000080fb0071528000c888de0099
:103924008140780000004700114898004e40900004
:103934000040e800404798004e4090000080fb00a3
:1039440071528000814078000000470011489800bf
:103954004e4090000040e800404798004e409000e0
:103964000084fb0047cabf000004e00002003200ec
:1039740041c0b300010037008040eb0052168000c4
:1039840000002400000061000000e000020032009a
:1039940020c0b300010037000040eb0080c4700079
:1039a400b10107000000e00006003200015280006f
:1039b40000fa2000808f5000020036001000200022
:1039c400010037000000eb000040780000c07400e4
:1039d4008040780008004700114898004e4090004d
:1039e4000040e800404798004e4090000080fb00f3
:1039f400211920009140780081c0ea0000004700ae
:103a0400114898004e4090000040e800404798005c
:103a14004e4090008080fb0069004700010178005f
:103a24008000780040c0b300900007001d003700fc
:103a34000040eb00404798004e4090000080fb009f
:103a44009e007800c808de0081407800000047002e
:103a5400114898004e4090000040e800404798000c
:103a64004e4090000080fb009e007800814078006a
:103a740000004700114898004e4090000040e800c4
:103a8400404798004e4090008080fb00690047004a
:103a9400010178008000780050c0b3007300070073
:103aa400000000004f04be000080fa000000060081
:103ab4000000fa0020c0b300020007000080fa00f2
:103ac400000006000200fa00004f780011002000f8
:103ad4000e007800320007000080fa0000000600a3
:103ae4000000fa0001aa200091407800a1cabf009a
:103af40080cf50000200320010c0b3000100370034
:103b04000040eb000080fa00000006000400fa0008
:103b14001007980001aa200091407800a1cabf00b4
:103b240080cf500018003200a1cabf000080fb0003
:103b340081a920000000400000804000900078002f
:103b44001e009000010878000380200012aa2000c3
:103b5400124178008280fb00000920000088b9002f
:103b640000007800008f41000240e800a1eab7009d
:103b7400a1cabf00e34f500001003600a16aef0064
:103b84001e007800040037001e0090008000eb0047
:103b9400010878000000eb000080fa000000060035
:103ba4000800fa0020079800310798000e80e8000a
:103bb400a5030700a0c5b300690007003e009000fc
:103bc4004800de0000407800650007003e009000d9
:103bd4004800de00804078000e80e800a103070062
:103be4003e009000004078005d0007003e00900019
:103bf400804078000e80e8009a0307000000eb0084
:103c0400000f78000c0037001e007800ae00900012
:103c14000080400010407800510007001e0078002a
:103c2400ae00900000804000904078000e80e800d4
:103c34008c0307001e0fe8009e0078003e009000f1
:103c4400808f5000f0ff39001e0090004800de0015
:103c540000407800420007001e00900000407800f9
:103c64003f0007000080fa00000006000a00fa0086
:103c74004047980031079800420798000e80e800fa
:103c840071030700a0c5b300350007004e00900083
:103c94000000e8004800de00004078003000070023
:103ca4004e0090000000e8004800de0080407800ec
:103cb4000e80e8006b0307004e009000004078007f
:103cc4000040e800260007004e0090000040780005
:103cd4008040e8000e80e800620307004e40900038
:103ce4001f0007000e80e800ce4090005d0307002f
:103cf4000000eb00000f78000c0037001e00780075
:103d0400be009000008040001040780014000700be
:103d14001e007800be0090000080400090407800b3
:103d24000e80e8004f0307001e0fe8009e00780095
:103d34004e009000808f5000f0ff39001e0090006c
:103d44004800de0000407800050007001e009000d7
:103d540000407800020007000080fa00000006001e
:103d64000200fa00004f78000000000011118000ea
:103d740000202000008060000000e000fbff3a000b
:103d84001e80fb00201188000080fa00000006005d
:103d94000200fa0030118000004f780010558000b6
:103da400e20f500020003200e20f500005003e00f8
:103db4000000e0000a003200e10f50001100320060
:103dc40064003700e40f50003e003200e40f50005e
:103dd40026003900e50f5000440032005d00370032
:103de400a0c5b3009e40780080cf500056003a0032
:103df400100020001055880040aa2000120307007c
:103e0400540037001e80fb004800dd003055880058
:103e14009e40780040aa20001203070020002000e2
:103e2400105588004b0037009e80fb003055800001
:103e340001007000305588009e40780040aa2000a0
:103e4400080307003155800000092000808f5000ce
:103e540004003e00a82aef0030002000105588001e
:103e64003c003700a22aef003a0037009e40780059
:103e740040aa2000fb020700a0cabf008080fb000c
:103e840042558000000920000088b9000000780035
:103e94008200400000802000008040001e4878001e
:103ea4000200e800405588004155800030558000ec
:103eb400808f5000260039004000200010558800f3
:103ec400240037009e80fb00205580004800de005f
:103ed400808f500003003a005000200010558800e5
:103ee4001c003700a22aef001a0037009e80fb0056
:103ef40022558000f00f200000006100808f5000e8
:103f04000e003a00a0cabf000080fb0031558000bb
:103f140082a9200000004000000041000108780050
:103f2400a0cabf000040e800a0eab700a0cabf00d2
:103f3400e34f500001003600a06aef00a22aef0010
:103f440000000000030037000000000001003700fb
:103f5400000000000080fa00000006003600f800af
:103f6400809fbe00829fbe00849fbe00869fbe00cd
:103f74003400f80000002000a00188000000fa00ce
:103f84008560a90082ff07000080fa003400f90070
:103f94004f03be004f02be004f01be004f00be00e3
:103fa4003600f900004006000200fa00004f7800d5
:103fb40000000000911180000020200000806000bb
:103fc4000000e000fbff3a001e80fb00a011880007
:103fd4000080fa00000006000000fa008fcabf004b
:103fe400e24f500003003e008fcabf000040e800cb
:103ff4008feab70091c0b300803529002300070081
:104004000080fa00000006000000fa00a1c0b3001e
:10401400e03429001d0007000080fa0000000600bb
:104024000000fa0061c0b300103629001700070031
:104034000080fa00000006000000fa0061c0b3002e
:1040440070362900110007000080fa000000060005
:104054000000fa0051c0b300d03629000b0007005d
:104064000080fa00000006000000fa00f1a8200019
:104074009140780010c0b300e2cf50000100360038
:104084000040eb000080fa00000006000600fa0081
:104094001007980041479800966aef000600370021
:1040a40000c4290001002000b002070096cabf0026
:1040b4000040e80096eab7008ecabf000004e000a2
:1040c4000500320061a920009140780070c2b3005d
:1040d40080cf5000f2ff36003342a80000e22400f3
:1040e40001002000a10207000040eb00004f78000f
:1040f400060037001e80fb009e00900000804000f8
:1041040010407800a8ff07001e4fe8004e409000c2
:104114009e40780080cf5000f6ff39000000000078
:104124009111800000102000008060000000e00079
:10413400fbff32003342a90010c0b3008eeab7007f
:104144000080fa0000000600809fbe00829fbe002f
:104154003400f80000002000a00188000200fa00ea
:1041640087c0a900b0118000004f780090cabf003a
:104174000080fb00e30f50002c003200e30f5000de
:1041840007003c00e10f500014003200e10f500022
:104194001a003c000000e0000a003200a2003700d0
:1041a400e50f50008a003200e50f50002c00350066
:1041b400e60f500091003200e70f500092003200e9
:1041c400990037001e407800e14f400099003a0002
:1041d40010c0b30090eab7009b0037001e4078007f
:1041e400e14f400003003a0020c0b30090eab7005a
:1041f40095003700906aef00930037001e41780065
:1042040011a920008248780091cabf000004e00090
:1042140003003a0070c0b30090eab7008a00370088
:1042240030c0b30090eab70087003700926aef000d
:104234001e407800f94f500006003a0091cabf00b2
:10424400fb4f500003003a0040c0b30090eab700af
:104254007d00370050c0b30090eab7007a00370001
:1042640092cabf000080fb00cf80de00b2002000b5
:1042740003002000820f5000838f580045003e0049
:10428400006001000b0037000e00370043003700c8
:1042940010003700120037001a0037001c003700e6
:1042a4003e00370023003700250037002d0037007b
:1042b4002f0037001e41780041a820008248780072
:1042c400370037001e41780051a82000824878004a
:1042d400330037001e80fb00a054880030003700f4
:1042e4001e80fb004800dd0080007800a0548000a0
:1042f40001007000a0548800a0548000505488002d
:10430400270037001e80fb00a054880024003700db
:104314001e80fb004800dd0080007800a05480006f
:1043240001007000a0548800a054800060548800ec
:104334001b0037001e80fb00a054880018003700c3
:104344001e80fb004800dd0080007800a05480003f
:1043540001007000a0548800a054800030548800ec
:104364000f0037001e80fb00a05488000c003700ab
:104374001e80fb004800dd0080007800a05480000f
:1043840001007000a0548800a054800040548800ac
:1043940003003700000000000100370000000000a7
:1043a40092cabf000040e80092eab70021a92000a9
:1043b4009140780091cabf0080cf50001f003a009e
:1043c4008f6aef0060c0b30090eab7001e003700a8
:1043d40092cabf000040e80092eab70021a9200079
:1043e4009140780091cabf0080cf500015003a0078
:1043f40060c0b30090eab700130037008e6aef0084
:10440400906aef00100037001e4078000004e000be
:1044140003003a0060c0b30090eab7000a00370016
:10442400906aef0008003700906aef000000000077
:104434000500370000000000030037000000000002
:1044440001003700000000000080fa003400f90089
:104454004f01be004f00be00004006000000fa00fd
:104464004000200001002000c0010700c8a2a800ed
:104474004000200001002000bc0107004000200093
:1044840001002000b9010700c8c2a800511680002d
:1044940000042000008060000000e000fbff320008
:1044a4004000200001002000b0010700400020006f
:1044b40001002000ad010700c8a2a900caa2a900fa
:1044c4004000200001002000a80107004000200057
:1044d40001002000a5010700c8c2a900cac2a900a2
:1044e4004000200001002000a00107000080fa0025
:1044f400000006000000fa00400020000100200037
:104504009a010700c8a2a900caa2a900400020007d
:104514000100200095010700400020000100200058
:1045240092010700c8c2a8005116800000042000b0
:10453400008060000000e000fbff3200400020002b
:104544000100200089010700400020000100200034
:1045540086010700c8a2a800400020000100200036
:10456400820107000080fa00000006000400fa003f
:104574002047980040002000010020007b01070034
:10458400c8c2a900cac2a90040002000010020003e
:10459400760107000040eb00004f78002b00370045
:1045a4002e4090000004e00008003d004000200080
:1045b400010020006d010700c8a2a80040002000ef
:1045c40001002000690107000800370040002000b6
:1045d4000100200065010700c8a2a900caa2a90021
:1045e400400020000100200060010700400020007e
:1045f400010020005d010700c8c2a8005116800018
:1046040000042000008060000000e000fbff320096
:104614004000200001002000540107002e409000bb
:104624000040400020479800400020000100200086
:104634004e010700c8c2a900cac2a9004000200058
:1046440001002000490107001e4fe8001e407800c9
:10465400e74f5000d2ff340040002000010020004a
:1046640042010700c8c2a8005116800000042000bf
:10467400008060000000e000fbff320040002000ea
:104684000100200039010700400020000100200043
:1046940036010700c8a2a800400020000100200045
:1046a40032010700501680004500de0061406000c2
:1046b400004f780040002000010020002b0107007b
:1046c400c8c2a900cac2a9004000200001002000fd
:1046d40026010700400020000100200023010700fc
:1046e400c8a2a900caa2a90040002000010020001d
:1046f4001e0107001e4078000080fa00000006003a
:104704000400fa0020479800400020000100200027
:1047140016010700c8a2a8004000200001002000e4
:10472400120107000040eb00004f78002000370022
:104734001e409000004040001047980040002000b8
:104744000100200009010700c8c2a800511680001a
:1047540000042000008060000000e000fbff320045
:1047640040002000010020000001070051168000d5
:1047740000022000008060000000e000030032001e
:104784001e4090000004a000104798004000200044
:1047940001002000f5000700c8c2a900cac2a90090
:1047a4004000200001002000f00007001e4fe80038
:1047b4001e407800e74f5000ddff34002e4090008b
:1047c400e14f500009003a004000200001002000a1
:1047d400e6000700c8a2a900caa2a9004000200060
:1047e40001002000e100070007003700400020001e
:1047f40001002000dd000700c8a2a800400020003e
:1048040001002000d9000700400020000100200022
:10481400d6000700c8c2a80051168000000420007a
:10482400008060000000e000fbff32004000200038
:1048340001002000cd0007004000200001002000fe
:10484400ca000700c8c2a900cac2a90040002000cb
:1048540001002000c50007004000200001002000e6
:10486400c2000700c8a2a900caa2a90040002000f3
:1048740001002000bd0007001e4090000080fa00e7
:10488400000006001200fa00889fbe00500798003e
:104894006207980073079800010f98000000eb006e
:1048a400000f7800560037001e0078004300dd003a
:1048b400de009000008040001001be006e009000f9
:1048c400fe009000800f5100818f59004b003c0086
:1048d4001e0078000000e8004300dd00de009000c8
:1048e400008040001001be006e009000fe009000a9
:1048f400800f5100818f5900400035001e00780060
:104904004300dd00de009000008040001000be0087
:104914006e019000fe01900000005100818059005a
:1049240010079800210798001e0078000000e80096
:104934004300dd00de009000008040001001be0056
:104944001e0078004300dd00de009000008040007f
:104954001000be000000510081805900300798000b
:10496400410798001e0078004300dd00de0090003f
:104974000080400020049000b00490001e007800e5
:104984000000e8004300dd00de00900000804000ed
:1049940020019000b00190001e0078004300dd006b
:1049a400de00900000804000b000900020009000e5
:1049b40000005100818059001e0190000191b9004e
:1049c40002017800ae019000009ab90084017800d9
:1049d400030141009e0190000018b800010141004c
:1049e400820078003e019000ce019000eaf40700b6
:1049f4000800400089804800060037001e0fe800c8
:104a04000e0890000000e9009e0f5000a6ff3c0035
:104a14006000b8004f04be000080fa0000000600e9
:104a24000200fa00000f78001e0078006101b8004f
:104a340031022000e022290092ff070000007800e4
:104a44000080fa00000006000200fa00000f78005f
:104a54001e0078008080eb00010878000080fa00d6
:104a6400000006000600fa0010079800414798006d
:104a74001e00900010007800804078004e409000a6
:104a840000cf68001e00900010007800c800de000f
:104a94001e009000010878001e009000900078002d
:104aa4001e80fb0000014000e002290000004100dc
:104ab40010007800808068001e00900001087800d3
:104ac4001e009000100078000080fa00000006002c
:104ad4000800fa0020079800310798000080eb00d6
:104ae400000f7800130037002e00900090407800eb
:104af4001e0078000040780000c06800204798003d
:104b04002e0090000000e800200798001e007800a6
:104b14004800de00000f78002e4090000080fb006b
:104b240080004000e002290000804000100078006e
:104b34001e0f68003e00900000f0a7000000ea008d
:104b44000000ea004f00de0000407800be00900044
:104b54008100e900310798000004e000e2ff3a0018
:0c4b64001e0078000080fa00000006002f
:020000040000fa
:104b7000f03fb1000180b10006003500ee030900ee
:104b800000000000403fb1000180b100fbff3d008c
:104b90001000b000203fb000020035000080090086
:084ba000000000000000060007
:020000040000fa
:104ba800000800004002000000000000980a000011
:104bb8001200000000000000400a0000440000004d
:104bc80000000000840a000014000000000000003b
:044bd80000000000d9
:020000040000fa
:0200000401f009
:04000000ffff0000fe
:020000040000fa
:0200000401f009
:04000800ffff0000f6
:020000040000fa
:0200000401f009
:04000c0018ff0000d9
:020000040000fa
:0200000401f009
:04001000d3ff00001a
:020000040000fa
:0200000401f009
:040014005fff00008a
:020000040000fa
:0200000401f009
:04001800efff0000f6
:020000040000fa
:0200000401f009
:04001c00feff0000e3
:00000001FF
